{
	"auction.sol": {
		"Auction": {
			"abi": [
				{
					"inputs": [
						{
							"internalType": "address",
							"name": "_nft",
							"type": "address"
						},
						{
							"internalType": "uint256",
							"name": "_nftId",
							"type": "uint256"
						},
						{
							"internalType": "uint256",
							"name": "_startedorders",
							"type": "uint256"
						}
					],
					"stateMutability": "nonpayable",
					"type": "constructor"
				},
				{
					"anonymous": false,
					"inputs": [
						{
							"indexed": true,
							"internalType": "address",
							"name": "sender",
							"type": "address"
						},
						{
							"indexed": false,
							"internalType": "uint256",
							"name": "price",
							"type": "uint256"
						}
					],
					"name": "Bid",
					"type": "event"
				},
				{
					"anonymous": false,
					"inputs": [
						{
							"indexed": false,
							"internalType": "address",
							"name": "winner",
							"type": "address"
						},
						{
							"indexed": false,
							"internalType": "uint256",
							"name": "price",
							"type": "uint256"
						}
					],
					"name": "End",
					"type": "event"
				},
				{
					"anonymous": false,
					"inputs": [],
					"name": "Strat",
					"type": "event"
				},
				{
					"anonymous": false,
					"inputs": [
						{
							"indexed": true,
							"internalType": "address",
							"name": "bidder",
							"type": "address"
						},
						{
							"indexed": false,
							"internalType": "uint256",
							"name": "price",
							"type": "uint256"
						}
					],
					"name": "Withraw",
					"type": "event"
				},
				{
					"inputs": [],
					"name": "end",
					"outputs": [],
					"stateMutability": "nonpayable",
					"type": "function"
				},
				{
					"inputs": [],
					"name": "ended",
					"outputs": [
						{
							"internalType": "bool",
							"name": "",
							"type": "bool"
						}
					],
					"stateMutability": "view",
					"type": "function"
				},
				{
					"inputs": [],
					"name": "highOrder",
					"outputs": [
						{
							"internalType": "uint256",
							"name": "",
							"type": "uint256"
						}
					],
					"stateMutability": "view",
					"type": "function"
				},
				{
					"inputs": [],
					"name": "highOrderAddress",
					"outputs": [
						{
							"internalType": "address",
							"name": "",
							"type": "address"
						}
					],
					"stateMutability": "view",
					"type": "function"
				},
				{
					"inputs": [],
					"name": "nft",
					"outputs": [
						{
							"internalType": "contract IERC721",
							"name": "",
							"type": "address"
						}
					],
					"stateMutability": "view",
					"type": "function"
				},
				{
					"inputs": [],
					"name": "nftId",
					"outputs": [
						{
							"internalType": "uint256",
							"name": "",
							"type": "uint256"
						}
					],
					"stateMutability": "view",
					"type": "function"
				},
				{
					"inputs": [],
					"name": "order",
					"outputs": [],
					"stateMutability": "payable",
					"type": "function"
				},
				{
					"inputs": [
						{
							"internalType": "address",
							"name": "",
							"type": "address"
						}
					],
					"name": "orders",
					"outputs": [
						{
							"internalType": "uint256",
							"name": "",
							"type": "uint256"
						}
					],
					"stateMutability": "view",
					"type": "function"
				},
				{
					"inputs": [],
					"name": "seller",
					"outputs": [
						{
							"internalType": "address payable",
							"name": "",
							"type": "address"
						}
					],
					"stateMutability": "view",
					"type": "function"
				},
				{
					"inputs": [],
					"name": "started",
					"outputs": [
						{
							"internalType": "bool",
							"name": "",
							"type": "bool"
						}
					],
					"stateMutability": "view",
					"type": "function"
				},
				{
					"inputs": [],
					"name": "strat",
					"outputs": [],
					"stateMutability": "nonpayable",
					"type": "function"
				},
				{
					"inputs": [],
					"name": "withdraw",
					"outputs": [],
					"stateMutability": "nonpayable",
					"type": "function"
				}
			],
			"devdoc": {
				"kind": "dev",
				"methods": {},
				"version": 1
			},
			"evm": {
				"assembly": "    /* \"auction.sol\":117:4294  contract Auction {... */\n  mstore(0x40, 0x80)\n    /* \"auction.sol\":1148:1405  constructor (address _nft,uint _nftId, uint _startedorders){ // مقادیر ورودی کانستراکتور را مقدار دهی می کنیم... */\n  callvalue\n  dup1\n  iszero\n  tag_1\n  jumpi\n  0x00\n  dup1\n  revert\ntag_1:\n  pop\n  mload(0x40)\n  sub(codesize, bytecodeSize)\n  dup1\n  bytecodeSize\n  dup4\n  codecopy\n  dup2\n  dup2\n  add\n  0x40\n  mstore\n  dup2\n  add\n  swap1\n  tag_2\n  swap2\n  swap1\n  tag_3\n  jump\t// in\ntag_2:\n    /* \"auction.sol\":1313:1317  _nft */\n  dup3\n    /* \"auction.sol\":1299:1302  nft */\n  0x00\n  dup1\n    /* \"auction.sol\":1299:1318  nft = IERC721(_nft) */\n  0x0100\n  exp\n  dup2\n  sload\n  dup2\n  0xffffffffffffffffffffffffffffffffffffffff\n  mul\n  not\n  and\n  swap1\n  dup4\n  0xffffffffffffffffffffffffffffffffffffffff\n  and\n  mul\n  or\n  swap1\n  sstore\n  pop\n    /* \"auction.sol\":1331:1337  _nftId */\n  dup2\n    /* \"auction.sol\":1323:1328  nftId */\n  0x01\n    /* \"auction.sol\":1323:1337  nftId = _nftId */\n  dup2\n  swap1\n  sstore\n  pop\n    /* \"auction.sol\":1359:1369  msg.sender */\n  caller\n    /* \"auction.sol\":1342:1348  seller */\n  0x02\n  0x00\n    /* \"auction.sol\":1342:1370  seller = payable(msg.sender) */\n  0x0100\n  exp\n  dup2\n  sload\n  dup2\n  0xffffffffffffffffffffffffffffffffffffffff\n  mul\n  not\n  and\n  swap1\n  dup4\n  0xffffffffffffffffffffffffffffffffffffffff\n  and\n  mul\n  or\n  swap1\n  sstore\n  pop\n    /* \"auction.sol\":1387:1401  _startedorders */\n  dup1\n    /* \"auction.sol\":1375:1384  highOrder */\n  0x05\n    /* \"auction.sol\":1375:1401  highOrder = _startedorders */\n  dup2\n  swap1\n  sstore\n  pop\n    /* \"auction.sol\":1148:1405  constructor (address _nft,uint _nftId, uint _startedorders){ // مقادیر ورودی کانستراکتور را مقدار دهی می کنیم... */\n  pop\n  pop\n  pop\n    /* \"auction.sol\":117:4294  contract Auction {... */\n  jump(tag_6)\n    /* \"#utility.yul\":88:205   */\ntag_8:\n    /* \"#utility.yul\":197:198   */\n  0x00\n    /* \"#utility.yul\":194:195   */\n  dup1\n    /* \"#utility.yul\":187:199   */\n  revert\n    /* \"#utility.yul\":334:460   */\ntag_10:\n    /* \"#utility.yul\":371:378   */\n  0x00\n    /* \"#utility.yul\":411:453   */\n  0xffffffffffffffffffffffffffffffffffffffff\n    /* \"#utility.yul\":404:409   */\n  dup3\n    /* \"#utility.yul\":400:454   */\n  and\n    /* \"#utility.yul\":389:454   */\n  swap1\n  pop\n    /* \"#utility.yul\":334:460   */\n  swap2\n  swap1\n  pop\n  jump\t// out\n    /* \"#utility.yul\":466:562   */\ntag_11:\n    /* \"#utility.yul\":503:510   */\n  0x00\n    /* \"#utility.yul\":532:556   */\n  tag_23\n    /* \"#utility.yul\":550:555   */\n  dup3\n    /* \"#utility.yul\":532:556   */\n  tag_10\n  jump\t// in\ntag_23:\n    /* \"#utility.yul\":521:556   */\n  swap1\n  pop\n    /* \"#utility.yul\":466:562   */\n  swap2\n  swap1\n  pop\n  jump\t// out\n    /* \"#utility.yul\":568:690   */\ntag_12:\n    /* \"#utility.yul\":641:665   */\n  tag_25\n    /* \"#utility.yul\":659:664   */\n  dup2\n    /* \"#utility.yul\":641:665   */\n  tag_11\n  jump\t// in\ntag_25:\n    /* \"#utility.yul\":634:639   */\n  dup2\n    /* \"#utility.yul\":631:666   */\n  eq\n    /* \"#utility.yul\":621:684   */\n  tag_26\n  jumpi\n    /* \"#utility.yul\":680:681   */\n  0x00\n    /* \"#utility.yul\":677:678   */\n  dup1\n    /* \"#utility.yul\":670:682   */\n  revert\n    /* \"#utility.yul\":621:684   */\ntag_26:\n    /* \"#utility.yul\":568:690   */\n  pop\n  jump\t// out\n    /* \"#utility.yul\":696:839   */\ntag_13:\n    /* \"#utility.yul\":753:758   */\n  0x00\n    /* \"#utility.yul\":784:790   */\n  dup2\n    /* \"#utility.yul\":778:791   */\n  mload\n    /* \"#utility.yul\":769:791   */\n  swap1\n  pop\n    /* \"#utility.yul\":800:833   */\n  tag_28\n    /* \"#utility.yul\":827:832   */\n  dup2\n    /* \"#utility.yul\":800:833   */\n  tag_12\n  jump\t// in\ntag_28:\n    /* \"#utility.yul\":696:839   */\n  swap3\n  swap2\n  pop\n  pop\n  jump\t// out\n    /* \"#utility.yul\":845:922   */\ntag_14:\n    /* \"#utility.yul\":882:889   */\n  0x00\n    /* \"#utility.yul\":911:916   */\n  dup2\n    /* \"#utility.yul\":900:916   */\n  swap1\n  pop\n    /* \"#utility.yul\":845:922   */\n  swap2\n  swap1\n  pop\n  jump\t// out\n    /* \"#utility.yul\":928:1050   */\ntag_15:\n    /* \"#utility.yul\":1001:1025   */\n  tag_31\n    /* \"#utility.yul\":1019:1024   */\n  dup2\n    /* \"#utility.yul\":1001:1025   */\n  tag_14\n  jump\t// in\ntag_31:\n    /* \"#utility.yul\":994:999   */\n  dup2\n    /* \"#utility.yul\":991:1026   */\n  eq\n    /* \"#utility.yul\":981:1044   */\n  tag_32\n  jumpi\n    /* \"#utility.yul\":1040:1041   */\n  0x00\n    /* \"#utility.yul\":1037:1038   */\n  dup1\n    /* \"#utility.yul\":1030:1042   */\n  revert\n    /* \"#utility.yul\":981:1044   */\ntag_32:\n    /* \"#utility.yul\":928:1050   */\n  pop\n  jump\t// out\n    /* \"#utility.yul\":1056:1199   */\ntag_16:\n    /* \"#utility.yul\":1113:1118   */\n  0x00\n    /* \"#utility.yul\":1144:1150   */\n  dup2\n    /* \"#utility.yul\":1138:1151   */\n  mload\n    /* \"#utility.yul\":1129:1151   */\n  swap1\n  pop\n    /* \"#utility.yul\":1160:1193   */\n  tag_34\n    /* \"#utility.yul\":1187:1192   */\n  dup2\n    /* \"#utility.yul\":1160:1193   */\n  tag_15\n  jump\t// in\ntag_34:\n    /* \"#utility.yul\":1056:1199   */\n  swap3\n  swap2\n  pop\n  pop\n  jump\t// out\n    /* \"#utility.yul\":1205:1868   */\ntag_3:\n    /* \"#utility.yul\":1293:1299   */\n  0x00\n    /* \"#utility.yul\":1301:1307   */\n  dup1\n    /* \"#utility.yul\":1309:1315   */\n  0x00\n    /* \"#utility.yul\":1358:1360   */\n  0x60\n    /* \"#utility.yul\":1346:1355   */\n  dup5\n    /* \"#utility.yul\":1337:1344   */\n  dup7\n    /* \"#utility.yul\":1333:1356   */\n  sub\n    /* \"#utility.yul\":1329:1361   */\n  slt\n    /* \"#utility.yul\":1326:1445   */\n  iszero\n  tag_36\n  jumpi\n    /* \"#utility.yul\":1364:1443   */\n  tag_37\n  tag_8\n  jump\t// in\ntag_37:\n    /* \"#utility.yul\":1326:1445   */\ntag_36:\n    /* \"#utility.yul\":1484:1485   */\n  0x00\n    /* \"#utility.yul\":1509:1573   */\n  tag_38\n    /* \"#utility.yul\":1565:1572   */\n  dup7\n    /* \"#utility.yul\":1556:1562   */\n  dup3\n    /* \"#utility.yul\":1545:1554   */\n  dup8\n    /* \"#utility.yul\":1541:1563   */\n  add\n    /* \"#utility.yul\":1509:1573   */\n  tag_13\n  jump\t// in\ntag_38:\n    /* \"#utility.yul\":1499:1573   */\n  swap4\n  pop\n    /* \"#utility.yul\":1455:1583   */\n  pop\n    /* \"#utility.yul\":1622:1624   */\n  0x20\n    /* \"#utility.yul\":1648:1712   */\n  tag_39\n    /* \"#utility.yul\":1704:1711   */\n  dup7\n    /* \"#utility.yul\":1695:1701   */\n  dup3\n    /* \"#utility.yul\":1684:1693   */\n  dup8\n    /* \"#utility.yul\":1680:1702   */\n  add\n    /* \"#utility.yul\":1648:1712   */\n  tag_16\n  jump\t// in\ntag_39:\n    /* \"#utility.yul\":1638:1712   */\n  swap3\n  pop\n    /* \"#utility.yul\":1593:1722   */\n  pop\n    /* \"#utility.yul\":1761:1763   */\n  0x40\n    /* \"#utility.yul\":1787:1851   */\n  tag_40\n    /* \"#utility.yul\":1843:1850   */\n  dup7\n    /* \"#utility.yul\":1834:1840   */\n  dup3\n    /* \"#utility.yul\":1823:1832   */\n  dup8\n    /* \"#utility.yul\":1819:1841   */\n  add\n    /* \"#utility.yul\":1787:1851   */\n  tag_16\n  jump\t// in\ntag_40:\n    /* \"#utility.yul\":1777:1851   */\n  swap2\n  pop\n    /* \"#utility.yul\":1732:1861   */\n  pop\n    /* \"#utility.yul\":1205:1868   */\n  swap3\n  pop\n  swap3\n  pop\n  swap3\n  jump\t// out\n    /* \"auction.sol\":117:4294  contract Auction {... */\ntag_6:\n  dataSize(sub_0)\n  dup1\n  dataOffset(sub_0)\n  0x00\n  codecopy\n  0x00\n  return\nstop\n\nsub_0: assembly {\n        /* \"auction.sol\":117:4294  contract Auction {... */\n      mstore(0x40, 0x80)\n      jumpi(tag_1, lt(calldatasize, 0x04))\n      shr(0xe0, calldataload(0x00))\n      dup1\n      0x47ccca02\n      gt\n      tag_14\n      jumpi\n      dup1\n      0x47ccca02\n      eq\n      tag_8\n      jumpi\n      dup1\n      0x9cfd5fc1\n      eq\n      tag_9\n      jumpi\n      dup1\n      0xbf15071d\n      eq\n      tag_10\n      jumpi\n      dup1\n      0xc6bc5182\n      eq\n      tag_11\n      jumpi\n      dup1\n      0xefbe1c1c\n      eq\n      tag_12\n      jumpi\n      dup1\n      0xf40e8471\n      eq\n      tag_13\n      jumpi\n      jump(tag_1)\n    tag_14:\n      dup1\n      0x059b2a10\n      eq\n      tag_2\n      jumpi\n      dup1\n      0x08551a53\n      eq\n      tag_3\n      jumpi\n      dup1\n      0x12fa6feb\n      eq\n      tag_4\n      jumpi\n      dup1\n      0x1f2698ab\n      eq\n      tag_5\n      jumpi\n      dup1\n      0x3ccfd60b\n      eq\n      tag_6\n      jumpi\n      dup1\n      0x44519656\n      eq\n      tag_7\n      jumpi\n    tag_1:\n      0x00\n      dup1\n      revert\n        /* \"auction.sol\":1407:2167  function strat() external  { //یک فانکشن برای شروع حراج می کنیم... */\n    tag_2:\n      callvalue\n      dup1\n      iszero\n      tag_15\n      jumpi\n      0x00\n      dup1\n      revert\n    tag_15:\n      pop\n      tag_16\n      tag_17\n      jump\t// in\n    tag_16:\n      stop\n        /* \"auction.sol\":605:635  address payable  public seller */\n    tag_3:\n      callvalue\n      dup1\n      iszero\n      tag_18\n      jumpi\n      0x00\n      dup1\n      revert\n    tag_18:\n      pop\n      tag_19\n      tag_20\n      jump\t// in\n    tag_19:\n      mload(0x40)\n      tag_21\n      swap2\n      swap1\n      tag_22\n      jump\t// in\n    tag_21:\n      mload(0x40)\n      dup1\n      swap2\n      sub\n      swap1\n      return\n        /* \"auction.sol\":784:801  bool public ended */\n    tag_4:\n      callvalue\n      dup1\n      iszero\n      tag_23\n      jumpi\n      0x00\n      dup1\n      revert\n    tag_23:\n      pop\n      tag_24\n      tag_25\n      jump\t// in\n    tag_24:\n      mload(0x40)\n      tag_26\n      swap2\n      swap1\n      tag_27\n      jump\t// in\n    tag_26:\n      mload(0x40)\n      dup1\n      swap2\n      sub\n      swap1\n      return\n        /* \"auction.sol\":730:749  bool public started */\n    tag_5:\n      callvalue\n      dup1\n      iszero\n      tag_28\n      jumpi\n      0x00\n      dup1\n      revert\n    tag_28:\n      pop\n      tag_29\n      tag_30\n      jump\t// in\n    tag_29:\n      mload(0x40)\n      tag_31\n      swap2\n      swap1\n      tag_27\n      jump\t// in\n    tag_31:\n      mload(0x40)\n      dup1\n      swap2\n      sub\n      swap1\n      return\n        /* \"auction.sol\":3097:3467  function withdraw() external  {... */\n    tag_6:\n      callvalue\n      dup1\n      iszero\n      tag_32\n      jumpi\n      0x00\n      dup1\n      revert\n    tag_32:\n      pop\n      tag_33\n      tag_34\n      jump\t// in\n    tag_33:\n      stop\n        /* \"auction.sol\":838:869  address public highOrderAddress */\n    tag_7:\n      callvalue\n      dup1\n      iszero\n      tag_35\n      jumpi\n      0x00\n      dup1\n      revert\n    tag_35:\n      pop\n      tag_36\n      tag_37\n      jump\t// in\n    tag_36:\n      mload(0x40)\n      tag_38\n      swap2\n      swap1\n      tag_39\n      jump\t// in\n    tag_38:\n      mload(0x40)\n      dup1\n      swap2\n      sub\n      swap1\n      return\n        /* \"auction.sol\":516:534  IERC721 public nft */\n    tag_8:\n      callvalue\n      dup1\n      iszero\n      tag_40\n      jumpi\n      0x00\n      dup1\n      revert\n    tag_40:\n      pop\n      tag_41\n      tag_42\n      jump\t// in\n    tag_41:\n      mload(0x40)\n      tag_43\n      swap2\n      swap1\n      tag_44\n      jump\t// in\n    tag_43:\n      mload(0x40)\n      dup1\n      swap2\n      sub\n      swap1\n      return\n        /* \"auction.sol\":929:950  uint public highOrder */\n    tag_9:\n      callvalue\n      dup1\n      iszero\n      tag_45\n      jumpi\n      0x00\n      dup1\n      revert\n    tag_45:\n      pop\n      tag_46\n      tag_47\n      jump\t// in\n    tag_46:\n      mload(0x40)\n      tag_48\n      swap2\n      swap1\n      tag_49\n      jump\t// in\n    tag_48:\n      mload(0x40)\n      dup1\n      swap2\n      sub\n      swap1\n      return\n        /* \"auction.sol\":2169:3095  function order() external payable  {... */\n    tag_10:\n      tag_50\n      tag_51\n      jump\t// in\n    tag_50:\n      stop\n        /* \"auction.sol\":569:587  uint public  nftId */\n    tag_11:\n      callvalue\n      dup1\n      iszero\n      tag_52\n      jumpi\n      0x00\n      dup1\n      revert\n    tag_52:\n      pop\n      tag_53\n      tag_54\n      jump\t// in\n    tag_53:\n      mload(0x40)\n      tag_55\n      swap2\n      swap1\n      tag_49\n      jump\t// in\n    tag_55:\n      mload(0x40)\n      dup1\n      swap2\n      sub\n      swap1\n      return\n        /* \"auction.sol\":3472:4291  function end() external  {... */\n    tag_12:\n      callvalue\n      dup1\n      iszero\n      tag_56\n      jumpi\n      0x00\n      dup1\n      revert\n    tag_56:\n      pop\n      tag_57\n      tag_58\n      jump\t// in\n    tag_57:\n      stop\n        /* \"auction.sol\":1009:1048  mapping (address => uint) public orders */\n    tag_13:\n      callvalue\n      dup1\n      iszero\n      tag_59\n      jumpi\n      0x00\n      dup1\n      revert\n    tag_59:\n      pop\n      tag_60\n      0x04\n      dup1\n      calldatasize\n      sub\n      dup2\n      add\n      swap1\n      tag_61\n      swap2\n      swap1\n      tag_62\n      jump\t// in\n    tag_61:\n      tag_63\n      jump\t// in\n    tag_60:\n      mload(0x40)\n      tag_64\n      swap2\n      swap1\n      tag_49\n      jump\t// in\n    tag_64:\n      mload(0x40)\n      dup1\n      swap2\n      sub\n      swap1\n      return\n        /* \"auction.sol\":1407:2167  function strat() external  { //یک فانکشن برای شروع حراج می کنیم... */\n    tag_17:\n        /* \"auction.sol\":1511:1518  started */\n      0x04\n      0x00\n      swap1\n      sload\n      swap1\n      0x0100\n      exp\n      swap1\n      div\n      0xff\n      and\n        /* \"auction.sol\":1510:1518  !started */\n      iszero\n        /* \"auction.sol\":1502:1539  require(!started,\"already start....\") */\n      tag_66\n      jumpi\n      mload(0x40)\n      0x08c379a000000000000000000000000000000000000000000000000000000000\n      dup2\n      mstore\n      0x04\n      add\n      tag_67\n      swap1\n      tag_68\n      jump\t// in\n    tag_67:\n      mload(0x40)\n      dup1\n      swap2\n      sub\n      swap1\n      revert\n    tag_66:\n        /* \"auction.sol\":1628:1634  seller */\n      0x02\n      0x00\n      swap1\n      sload\n      swap1\n      0x0100\n      exp\n      swap1\n      div\n      0xffffffffffffffffffffffffffffffffffffffff\n      and\n        /* \"auction.sol\":1614:1634  msg.sender == seller */\n      0xffffffffffffffffffffffffffffffffffffffff\n      and\n        /* \"auction.sol\":1614:1624  msg.sender */\n      caller\n        /* \"auction.sol\":1614:1634  msg.sender == seller */\n      0xffffffffffffffffffffffffffffffffffffffff\n      and\n      eq\n        /* \"auction.sol\":1606:1650  require(msg.sender == seller , \"not seller\") */\n      tag_69\n      jumpi\n      mload(0x40)\n      0x08c379a000000000000000000000000000000000000000000000000000000000\n      dup2\n      mstore\n      0x04\n      add\n      tag_70\n      swap1\n      tag_71\n      jump\t// in\n    tag_70:\n      mload(0x40)\n      dup1\n      swap2\n      sub\n      swap1\n      revert\n    tag_69:\n        /* \"auction.sol\":1741:1744  nft */\n      0x00\n      dup1\n      sload\n      swap1\n      0x0100\n      exp\n      swap1\n      div\n      0xffffffffffffffffffffffffffffffffffffffff\n      and\n        /* \"auction.sol\":1741:1757  nft.transferFrom */\n      0xffffffffffffffffffffffffffffffffffffffff\n      and\n      0x23b872dd\n        /* \"auction.sol\":1758:1768  msg.sender */\n      caller\n        /* \"auction.sol\":1779:1783  this */\n      address\n        /* \"auction.sol\":1786:1791  nftId */\n      sload(0x01)\n        /* \"auction.sol\":1741:1792  nft.transferFrom(msg.sender , address(this), nftId) */\n      mload(0x40)\n      dup5\n      0xffffffff\n      and\n      0xe0\n      shl\n      dup2\n      mstore\n      0x04\n      add\n      tag_72\n      swap4\n      swap3\n      swap2\n      swap1\n      tag_73\n      jump\t// in\n    tag_72:\n      0x00\n      mload(0x40)\n      dup1\n      dup4\n      sub\n      dup2\n      0x00\n      dup8\n      dup1\n      extcodesize\n      iszero\n      dup1\n      iszero\n      tag_74\n      jumpi\n      0x00\n      dup1\n      revert\n    tag_74:\n      pop\n      gas\n      call\n      iszero\n      dup1\n      iszero\n      tag_76\n      jumpi\n      returndatasize\n      0x00\n      dup1\n      returndatacopy\n      revert(0x00, returndatasize)\n    tag_76:\n      pop\n      pop\n      pop\n      pop\n        /* \"auction.sol\":1918:1922  true */\n      0x01\n        /* \"auction.sol\":1908:1915  started */\n      0x04\n      0x00\n        /* \"auction.sol\":1908:1922  started = true */\n      0x0100\n      exp\n      dup2\n      sload\n      dup2\n      0xff\n      mul\n      not\n      and\n      swap1\n      dup4\n      iszero\n      iszero\n      mul\n      or\n      swap1\n      sstore\n      pop\n        /* \"auction.sol\":2059:2065  1 days */\n      0x015180\n        /* \"auction.sol\":2041:2056  block.timestamp */\n      timestamp\n        /* \"auction.sol\":2041:2065  block.timestamp + 1 days */\n      tag_77\n      swap2\n      swap1\n      tag_78\n      jump\t// in\n    tag_77:\n        /* \"auction.sol\":2033:2038  endAt */\n      0x03\n        /* \"auction.sol\":2033:2065  endAt = block.timestamp + 1 days */\n      dup2\n      swap1\n      sstore\n      pop\n        /* \"auction.sol\":2101:2108  Strat() */\n      0xa45a51138b787eb2037222d091f2d7a2e1c2af2f4051a414a11c84edc74df953\n      mload(0x40)\n      mload(0x40)\n      dup1\n      swap2\n      sub\n      swap1\n      log1\n        /* \"auction.sol\":1407:2167  function strat() external  { //یک فانکشن برای شروع حراج می کنیم... */\n      jump\t// out\n        /* \"auction.sol\":605:635  address payable  public seller */\n    tag_20:\n      0x02\n      0x00\n      swap1\n      sload\n      swap1\n      0x0100\n      exp\n      swap1\n      div\n      0xffffffffffffffffffffffffffffffffffffffff\n      and\n      dup2\n      jump\t// out\n        /* \"auction.sol\":784:801  bool public ended */\n    tag_25:\n      0x04\n      0x01\n      swap1\n      sload\n      swap1\n      0x0100\n      exp\n      swap1\n      div\n      0xff\n      and\n      dup2\n      jump\t// out\n        /* \"auction.sol\":730:749  bool public started */\n    tag_30:\n      0x04\n      0x00\n      swap1\n      sload\n      swap1\n      0x0100\n      exp\n      swap1\n      div\n      0xff\n      and\n      dup2\n      jump\t// out\n        /* \"auction.sol\":3097:3467  function withdraw() external  {... */\n    tag_34:\n        /* \"auction.sol\":3134:3146  uint balance */\n      0x00\n        /* \"auction.sol\":3149:3155  orders */\n      0x06\n        /* \"auction.sol\":3149:3167  orders[msg.sender] */\n      0x00\n        /* \"auction.sol\":3156:3166  msg.sender */\n      caller\n        /* \"auction.sol\":3149:3167  orders[msg.sender] */\n      0xffffffffffffffffffffffffffffffffffffffff\n      and\n      0xffffffffffffffffffffffffffffffffffffffff\n      and\n      dup2\n      mstore\n      0x20\n      add\n      swap1\n      dup2\n      mstore\n      0x20\n      add\n      0x00\n      keccak256\n      sload\n        /* \"auction.sol\":3134:3167  uint balance = orders[msg.sender] */\n      swap1\n      pop\n        /* \"auction.sol\":3258:3259  0 */\n      0x00\n        /* \"auction.sol\":3237:3243  orders */\n      0x06\n        /* \"auction.sol\":3237:3255  orders[msg.sender] */\n      0x00\n        /* \"auction.sol\":3244:3254  msg.sender */\n      caller\n        /* \"auction.sol\":3237:3255  orders[msg.sender] */\n      0xffffffffffffffffffffffffffffffffffffffff\n      and\n      0xffffffffffffffffffffffffffffffffffffffff\n      and\n      dup2\n      mstore\n      0x20\n      add\n      swap1\n      dup2\n      mstore\n      0x20\n      add\n      0x00\n      keccak256\n        /* \"auction.sol\":3237:3259  orders[msg.sender] = 0 */\n      dup2\n      swap1\n      sstore\n      pop\n        /* \"auction.sol\":3276:3286  msg.sender */\n      caller\n        /* \"auction.sol\":3267:3296  payable (msg.sender).transfer */\n      0xffffffffffffffffffffffffffffffffffffffff\n      and\n        /* \"auction.sol\":3267:3305  payable (msg.sender).transfer(balance) */\n      0x08fc\n        /* \"auction.sol\":3297:3304  balance */\n      dup3\n        /* \"auction.sol\":3267:3305  payable (msg.sender).transfer(balance) */\n      swap1\n      dup2\n      iszero\n      mul\n      swap1\n      mload(0x40)\n      0x00\n      mload(0x40)\n      dup1\n      dup4\n      sub\n      dup2\n      dup6\n      dup9\n      dup9\n      call\n      swap4\n      pop\n      pop\n      pop\n      pop\n      iszero\n      dup1\n      iszero\n      tag_81\n      jumpi\n      returndatasize\n      0x00\n      dup1\n      returndatacopy\n      revert(0x00, returndatasize)\n    tag_81:\n      pop\n        /* \"auction.sol\":3406:3416  msg.sender */\n      caller\n        /* \"auction.sol\":3398:3426  Withraw(msg.sender, balance) */\n      0xffffffffffffffffffffffffffffffffffffffff\n      and\n      0x7a091cb75d8d5f5e7ecba428a87e35adb231681f6ee35c9fc6ce90966401ff5b\n        /* \"auction.sol\":3418:3425  balance */\n      dup3\n        /* \"auction.sol\":3398:3426  Withraw(msg.sender, balance) */\n      mload(0x40)\n      tag_82\n      swap2\n      swap1\n      tag_49\n      jump\t// in\n    tag_82:\n      mload(0x40)\n      dup1\n      swap2\n      sub\n      swap1\n      log2\n        /* \"auction.sol\":3127:3467  {... */\n      pop\n        /* \"auction.sol\":3097:3467  function withdraw() external  {... */\n      jump\t// out\n        /* \"auction.sol\":838:869  address public highOrderAddress */\n    tag_37:\n      0x04\n      0x02\n      swap1\n      sload\n      swap1\n      0x0100\n      exp\n      swap1\n      div\n      0xffffffffffffffffffffffffffffffffffffffff\n      and\n      dup2\n      jump\t// out\n        /* \"auction.sol\":516:534  IERC721 public nft */\n    tag_42:\n      0x00\n      dup1\n      sload\n      swap1\n      0x0100\n      exp\n      swap1\n      div\n      0xffffffffffffffffffffffffffffffffffffffff\n      and\n      dup2\n      jump\t// out\n        /* \"auction.sol\":929:950  uint public highOrder */\n    tag_47:\n      sload(0x05)\n      dup2\n      jump\t// out\n        /* \"auction.sol\":2169:3095  function order() external payable  {... */\n    tag_51:\n        /* \"auction.sol\":2219:2226  started */\n      0x04\n      0x00\n      swap1\n      sload\n      swap1\n      0x0100\n      exp\n      swap1\n      div\n      0xff\n      and\n        /* \"auction.sol\":2211:2243  require(started , \"not started\") */\n      tag_84\n      jumpi\n      mload(0x40)\n      0x08c379a000000000000000000000000000000000000000000000000000000000\n      dup2\n      mstore\n      0x04\n      add\n      tag_85\n      swap1\n      tag_86\n      jump\t// in\n    tag_85:\n      mload(0x40)\n      dup1\n      swap2\n      sub\n      swap1\n      revert\n    tag_84:\n        /* \"auction.sol\":2350:2355  endAt */\n      sload(0x03)\n        /* \"auction.sol\":2332:2347  block.timestamp */\n      timestamp\n        /* \"auction.sol\":2332:2355  block.timestamp < endAt */\n      lt\n        /* \"auction.sol\":2324:2358  require(block.timestamp < endAt  ) */\n      tag_87\n      jumpi\n      0x00\n      dup1\n      revert\n    tag_87:\n        /* \"auction.sol\":2430:2439  highOrder */\n      sload(0x05)\n        /* \"auction.sol\":2418:2427  msg.value */\n      callvalue\n        /* \"auction.sol\":2418:2439  msg.value > highOrder */\n      gt\n        /* \"auction.sol\":2410:2440  require(msg.value > highOrder) */\n      tag_88\n      jumpi\n      0x00\n      dup1\n      revert\n    tag_88:\n        /* \"auction.sol\":2587:2588  0 */\n      0x00\n        /* \"auction.sol\":2559:2589  highOrderAddress != address(0) */\n      0xffffffffffffffffffffffffffffffffffffffff\n      and\n        /* \"auction.sol\":2559:2575  highOrderAddress */\n      0x04\n      0x02\n      swap1\n      sload\n      swap1\n      0x0100\n      exp\n      swap1\n      div\n      0xffffffffffffffffffffffffffffffffffffffff\n      and\n        /* \"auction.sol\":2559:2589  highOrderAddress != address(0) */\n      0xffffffffffffffffffffffffffffffffffffffff\n      and\n      eq\n        /* \"auction.sol\":2554:2918  if  (highOrderAddress != address(0)){ // شرط می گذاریم که اگر کسی که بالاترین پیشنهاد را گذاشته ادرسش برابر با صفر نبود... */\n      tag_89\n      jumpi\n        /* \"auction.sol\":2772:2781  highOrder */\n      sload(0x05)\n        /* \"auction.sol\":2744:2750  orders */\n      0x06\n        /* \"auction.sol\":2744:2768  orders[highOrderAddress] */\n      0x00\n        /* \"auction.sol\":2751:2767  highOrderAddress */\n      0x04\n      0x02\n      swap1\n      sload\n      swap1\n      0x0100\n      exp\n      swap1\n      div\n      0xffffffffffffffffffffffffffffffffffffffff\n      and\n        /* \"auction.sol\":2744:2768  orders[highOrderAddress] */\n      0xffffffffffffffffffffffffffffffffffffffff\n      and\n      0xffffffffffffffffffffffffffffffffffffffff\n      and\n      dup2\n      mstore\n      0x20\n      add\n      swap1\n      dup2\n      mstore\n      0x20\n      add\n      0x00\n      keccak256\n      0x00\n        /* \"auction.sol\":2744:2781  orders[highOrderAddress] += highOrder */\n      dup3\n      dup3\n      sload\n      tag_90\n      swap2\n      swap1\n      tag_78\n      jump\t// in\n    tag_90:\n      swap3\n      pop\n      pop\n      dup2\n      swap1\n      sstore\n      pop\n        /* \"auction.sol\":2554:2918  if  (highOrderAddress != address(0)){ // شرط می گذاریم که اگر کسی که بالاترین پیشنهاد را گذاشته ادرسش برابر با صفر نبود... */\n    tag_89:\n        /* \"auction.sol\":2945:2955  msg.sender */\n      caller\n        /* \"auction.sol\":2926:2942  highOrderAddress */\n      0x04\n      0x02\n        /* \"auction.sol\":2926:2955  highOrderAddress = msg.sender */\n      0x0100\n      exp\n      dup2\n      sload\n      dup2\n      0xffffffffffffffffffffffffffffffffffffffff\n      mul\n      not\n      and\n      swap1\n      dup4\n      0xffffffffffffffffffffffffffffffffffffffff\n      and\n      mul\n      or\n      swap1\n      sstore\n      pop\n        /* \"auction.sol\":2988:2997  msg.value */\n      callvalue\n        /* \"auction.sol\":2976:2985  highOrder */\n      0x05\n        /* \"auction.sol\":2976:2997  highOrder = msg.value */\n      dup2\n      swap1\n      sstore\n      pop\n        /* \"auction.sol\":3030:3040  msg.sender */\n      caller\n        /* \"auction.sol\":3026:3053  Bid(msg.sender , msg.value) */\n      0xffffffffffffffffffffffffffffffffffffffff\n      and\n      0xe684a55f31b79eca403df938249029212a5925ec6be8012e099b45bc1019e5d2\n        /* \"auction.sol\":3043:3052  msg.value */\n      callvalue\n        /* \"auction.sol\":3026:3053  Bid(msg.sender , msg.value) */\n      mload(0x40)\n      tag_91\n      swap2\n      swap1\n      tag_49\n      jump\t// in\n    tag_91:\n      mload(0x40)\n      dup1\n      swap2\n      sub\n      swap1\n      log2\n        /* \"auction.sol\":2169:3095  function order() external payable  {... */\n      jump\t// out\n        /* \"auction.sol\":569:587  uint public  nftId */\n    tag_54:\n      sload(0x01)\n      dup2\n      jump\t// out\n        /* \"auction.sol\":3472:4291  function end() external  {... */\n    tag_58:\n        /* \"auction.sol\":3512:3519  started */\n      0x04\n      0x00\n      swap1\n      sload\n      swap1\n      0x0100\n      exp\n      swap1\n      div\n      0xff\n      and\n        /* \"auction.sol\":3504:3534  require(started,\"not started\") */\n      tag_93\n      jumpi\n      mload(0x40)\n      0x08c379a000000000000000000000000000000000000000000000000000000000\n      dup2\n      mstore\n      0x04\n      add\n      tag_94\n      swap1\n      tag_86\n      jump\t// in\n    tag_94:\n      mload(0x40)\n      dup1\n      swap2\n      sub\n      swap1\n      revert\n    tag_93:\n        /* \"auction.sol\":3602:3607  endAt */\n      sload(0x03)\n        /* \"auction.sol\":3583:3598  block.timestamp */\n      timestamp\n        /* \"auction.sol\":3583:3607  block.timestamp >= endAt */\n      lt\n      iszero\n        /* \"auction.sol\":3575:3620  require(block.timestamp >= endAt,\"not ended\") */\n      tag_95\n      jumpi\n      mload(0x40)\n      0x08c379a000000000000000000000000000000000000000000000000000000000\n      dup2\n      mstore\n      0x04\n      add\n      tag_96\n      swap1\n      tag_97\n      jump\t// in\n    tag_96:\n      mload(0x40)\n      dup1\n      swap2\n      sub\n      swap1\n      revert\n    tag_95:\n        /* \"auction.sol\":3666:3671  ended */\n      0x04\n      0x01\n      swap1\n      sload\n      swap1\n      0x0100\n      exp\n      swap1\n      div\n      0xff\n      and\n        /* \"auction.sol\":3665:3671  !ended */\n      iszero\n        /* \"auction.sol\":3657:3682  require(!ended , \"ended\") */\n      tag_98\n      jumpi\n      mload(0x40)\n      0x08c379a000000000000000000000000000000000000000000000000000000000\n      dup2\n      mstore\n      0x04\n      add\n      tag_99\n      swap1\n      tag_100\n      jump\t// in\n    tag_99:\n      mload(0x40)\n      dup1\n      swap2\n      sub\n      swap1\n      revert\n    tag_98:\n        /* \"auction.sol\":3698:3702  true */\n      0x01\n        /* \"auction.sol\":3690:3695  ended */\n      0x04\n      0x01\n        /* \"auction.sol\":3690:3702  ended = true */\n      0x0100\n      exp\n      dup2\n      sload\n      dup2\n      0xff\n      mul\n      not\n      and\n      swap1\n      dup4\n      iszero\n      iszero\n      mul\n      or\n      swap1\n      sstore\n      pop\n        /* \"auction.sol\":3764:3765  0 */\n      0x00\n        /* \"auction.sol\":3736:3766  highOrderAddress != address(0) */\n      0xffffffffffffffffffffffffffffffffffffffff\n      and\n        /* \"auction.sol\":3736:3752  highOrderAddress */\n      0x04\n      0x02\n      swap1\n      sload\n      swap1\n      0x0100\n      exp\n      swap1\n      div\n      0xffffffffffffffffffffffffffffffffffffffff\n      and\n        /* \"auction.sol\":3736:3766  highOrderAddress != address(0) */\n      0xffffffffffffffffffffffffffffffffffffffff\n      and\n      eq\n        /* \"auction.sol\":3732:4243  if (highOrderAddress != address(0)) {  // اگر شخصی که بالاترین پیشنهاد را داده ادرس ان برابر صفر نبود... */\n      tag_101\n      jumpi\n        /* \"auction.sol\":3889:3892  nft */\n      0x00\n      dup1\n      sload\n      swap1\n      0x0100\n      exp\n      swap1\n      div\n      0xffffffffffffffffffffffffffffffffffffffff\n      and\n        /* \"auction.sol\":3889:3909  nft.safeTransferFrom */\n      0xffffffffffffffffffffffffffffffffffffffff\n      and\n      0x42842e0e\n        /* \"auction.sol\":3918:3922  this */\n      address\n        /* \"auction.sol\":3925:3941  highOrderAddress */\n      0x04\n      0x02\n      swap1\n      sload\n      swap1\n      0x0100\n      exp\n      swap1\n      div\n      0xffffffffffffffffffffffffffffffffffffffff\n      and\n        /* \"auction.sol\":3943:3948  nftId */\n      sload(0x01)\n        /* \"auction.sol\":3889:3949  nft.safeTransferFrom(address(this), highOrderAddress, nftId) */\n      mload(0x40)\n      dup5\n      0xffffffff\n      and\n      0xe0\n      shl\n      dup2\n      mstore\n      0x04\n      add\n      tag_102\n      swap4\n      swap3\n      swap2\n      swap1\n      tag_73\n      jump\t// in\n    tag_102:\n      0x00\n      mload(0x40)\n      dup1\n      dup4\n      sub\n      dup2\n      0x00\n      dup8\n      dup1\n      extcodesize\n      iszero\n      dup1\n      iszero\n      tag_103\n      jumpi\n      0x00\n      dup1\n      revert\n    tag_103:\n      pop\n      gas\n      call\n      iszero\n      dup1\n      iszero\n      tag_105\n      jumpi\n      returndatasize\n      0x00\n      dup1\n      returndatacopy\n      revert(0x00, returndatasize)\n    tag_105:\n      pop\n      pop\n      pop\n      pop\n        /* \"auction.sol\":4017:4023  seller */\n      0x02\n      0x00\n      swap1\n      sload\n      swap1\n      0x0100\n      exp\n      swap1\n      div\n      0xffffffffffffffffffffffffffffffffffffffff\n      and\n        /* \"auction.sol\":4017:4032  seller.transfer */\n      0xffffffffffffffffffffffffffffffffffffffff\n      and\n        /* \"auction.sol\":4017:4043  seller.transfer(highOrder) */\n      0x08fc\n        /* \"auction.sol\":4033:4042  highOrder */\n      sload(0x05)\n        /* \"auction.sol\":4017:4043  seller.transfer(highOrder) */\n      swap1\n      dup2\n      iszero\n      mul\n      swap1\n      mload(0x40)\n      0x00\n      mload(0x40)\n      dup1\n      dup4\n      sub\n      dup2\n      dup6\n      dup9\n      dup9\n      call\n      swap4\n      pop\n      pop\n      pop\n      pop\n      iszero\n      dup1\n      iszero\n      tag_107\n      jumpi\n      returndatasize\n      0x00\n      dup1\n      returndatacopy\n      revert(0x00, returndatasize)\n    tag_107:\n      pop\n        /* \"auction.sol\":3732:4243  if (highOrderAddress != address(0)) {  // اگر شخصی که بالاترین پیشنهاد را داده ادرس ان برابر صفر نبود... */\n      jump(tag_108)\n    tag_101:\n        /* \"auction.sol\":4101:4104  nft */\n      0x00\n      dup1\n      sload\n      swap1\n      0x0100\n      exp\n      swap1\n      div\n      0xffffffffffffffffffffffffffffffffffffffff\n      and\n        /* \"auction.sol\":4101:4121  nft.safeTransferFrom */\n      0xffffffffffffffffffffffffffffffffffffffff\n      and\n      0x42842e0e\n        /* \"auction.sol\":4130:4134  this */\n      address\n        /* \"auction.sol\":4137:4143  seller */\n      0x02\n      0x00\n      swap1\n      sload\n      swap1\n      0x0100\n      exp\n      swap1\n      div\n      0xffffffffffffffffffffffffffffffffffffffff\n      and\n        /* \"auction.sol\":4145:4150  nftId */\n      sload(0x01)\n        /* \"auction.sol\":4101:4151  nft.safeTransferFrom(address(this), seller, nftId) */\n      mload(0x40)\n      dup5\n      0xffffffff\n      and\n      0xe0\n      shl\n      dup2\n      mstore\n      0x04\n      add\n      tag_109\n      swap4\n      swap3\n      swap2\n      swap1\n      tag_110\n      jump\t// in\n    tag_109:\n      0x00\n      mload(0x40)\n      dup1\n      dup4\n      sub\n      dup2\n      0x00\n      dup8\n      dup1\n      extcodesize\n      iszero\n      dup1\n      iszero\n      tag_111\n      jumpi\n      0x00\n      dup1\n      revert\n    tag_111:\n      pop\n      gas\n      call\n      iszero\n      dup1\n      iszero\n      tag_113\n      jumpi\n      returndatasize\n      0x00\n      dup1\n      returndatacopy\n      revert(0x00, returndatasize)\n    tag_113:\n      pop\n      pop\n      pop\n      pop\n        /* \"auction.sol\":3732:4243  if (highOrderAddress != address(0)) {  // اگر شخصی که بالاترین پیشنهاد را داده ادرس ان برابر صفر نبود... */\n    tag_108:\n        /* \"auction.sol\":4254:4287  End(highOrderAddress , highOrder) */\n      0x7d7570b046e5ead3a4f3fbc9fa2445113625a1e79823776146316bafed6b8cc5\n        /* \"auction.sol\":4258:4274  highOrderAddress */\n      0x04\n      0x02\n      swap1\n      sload\n      swap1\n      0x0100\n      exp\n      swap1\n      div\n      0xffffffffffffffffffffffffffffffffffffffff\n      and\n        /* \"auction.sol\":4277:4286  highOrder */\n      sload(0x05)\n        /* \"auction.sol\":4254:4287  End(highOrderAddress , highOrder) */\n      mload(0x40)\n      tag_114\n      swap3\n      swap2\n      swap1\n      tag_115\n      jump\t// in\n    tag_114:\n      mload(0x40)\n      dup1\n      swap2\n      sub\n      swap1\n      log1\n        /* \"auction.sol\":3472:4291  function end() external  {... */\n      jump\t// out\n        /* \"auction.sol\":1009:1048  mapping (address => uint) public orders */\n    tag_63:\n      mstore(0x20, 0x06)\n      dup1\n      0x00\n      mstore\n      keccak256(0x00, 0x40)\n      0x00\n      swap2\n      pop\n      swap1\n      pop\n      sload\n      dup2\n      jump\t// out\n        /* \"#utility.yul\":7:133   */\n    tag_116:\n        /* \"#utility.yul\":44:51   */\n      0x00\n        /* \"#utility.yul\":84:126   */\n      0xffffffffffffffffffffffffffffffffffffffff\n        /* \"#utility.yul\":77:82   */\n      dup3\n        /* \"#utility.yul\":73:127   */\n      and\n        /* \"#utility.yul\":62:127   */\n      swap1\n      pop\n        /* \"#utility.yul\":7:133   */\n      swap2\n      swap1\n      pop\n      jump\t// out\n        /* \"#utility.yul\":139:243   */\n    tag_117:\n        /* \"#utility.yul\":184:191   */\n      0x00\n        /* \"#utility.yul\":213:237   */\n      tag_152\n        /* \"#utility.yul\":231:236   */\n      dup3\n        /* \"#utility.yul\":213:237   */\n      tag_116\n      jump\t// in\n    tag_152:\n        /* \"#utility.yul\":202:237   */\n      swap1\n      pop\n        /* \"#utility.yul\":139:243   */\n      swap2\n      swap1\n      pop\n      jump\t// out\n        /* \"#utility.yul\":249:391   */\n    tag_118:\n        /* \"#utility.yul\":352:384   */\n      tag_154\n        /* \"#utility.yul\":378:383   */\n      dup2\n        /* \"#utility.yul\":352:384   */\n      tag_117\n      jump\t// in\n    tag_154:\n        /* \"#utility.yul\":347:350   */\n      dup3\n        /* \"#utility.yul\":340:385   */\n      mstore\n        /* \"#utility.yul\":249:391   */\n      pop\n      pop\n      jump\t// out\n        /* \"#utility.yul\":397:651   */\n    tag_22:\n        /* \"#utility.yul\":506:510   */\n      0x00\n        /* \"#utility.yul\":544:546   */\n      0x20\n        /* \"#utility.yul\":533:542   */\n      dup3\n        /* \"#utility.yul\":529:547   */\n      add\n        /* \"#utility.yul\":521:547   */\n      swap1\n      pop\n        /* \"#utility.yul\":557:644   */\n      tag_156\n        /* \"#utility.yul\":641:642   */\n      0x00\n        /* \"#utility.yul\":630:639   */\n      dup4\n        /* \"#utility.yul\":626:643   */\n      add\n        /* \"#utility.yul\":617:623   */\n      dup5\n        /* \"#utility.yul\":557:644   */\n      tag_118\n      jump\t// in\n    tag_156:\n        /* \"#utility.yul\":397:651   */\n      swap3\n      swap2\n      pop\n      pop\n      jump\t// out\n        /* \"#utility.yul\":657:747   */\n    tag_119:\n        /* \"#utility.yul\":691:698   */\n      0x00\n        /* \"#utility.yul\":734:739   */\n      dup2\n        /* \"#utility.yul\":727:740   */\n      iszero\n        /* \"#utility.yul\":720:741   */\n      iszero\n        /* \"#utility.yul\":709:741   */\n      swap1\n      pop\n        /* \"#utility.yul\":657:747   */\n      swap2\n      swap1\n      pop\n      jump\t// out\n        /* \"#utility.yul\":753:862   */\n    tag_120:\n        /* \"#utility.yul\":834:855   */\n      tag_159\n        /* \"#utility.yul\":849:854   */\n      dup2\n        /* \"#utility.yul\":834:855   */\n      tag_119\n      jump\t// in\n    tag_159:\n        /* \"#utility.yul\":829:832   */\n      dup3\n        /* \"#utility.yul\":822:856   */\n      mstore\n        /* \"#utility.yul\":753:862   */\n      pop\n      pop\n      jump\t// out\n        /* \"#utility.yul\":868:1078   */\n    tag_27:\n        /* \"#utility.yul\":955:959   */\n      0x00\n        /* \"#utility.yul\":993:995   */\n      0x20\n        /* \"#utility.yul\":982:991   */\n      dup3\n        /* \"#utility.yul\":978:996   */\n      add\n        /* \"#utility.yul\":970:996   */\n      swap1\n      pop\n        /* \"#utility.yul\":1006:1071   */\n      tag_161\n        /* \"#utility.yul\":1068:1069   */\n      0x00\n        /* \"#utility.yul\":1057:1066   */\n      dup4\n        /* \"#utility.yul\":1053:1070   */\n      add\n        /* \"#utility.yul\":1044:1050   */\n      dup5\n        /* \"#utility.yul\":1006:1071   */\n      tag_120\n      jump\t// in\n    tag_161:\n        /* \"#utility.yul\":868:1078   */\n      swap3\n      swap2\n      pop\n      pop\n      jump\t// out\n        /* \"#utility.yul\":1084:1180   */\n    tag_121:\n        /* \"#utility.yul\":1121:1128   */\n      0x00\n        /* \"#utility.yul\":1150:1174   */\n      tag_163\n        /* \"#utility.yul\":1168:1173   */\n      dup3\n        /* \"#utility.yul\":1150:1174   */\n      tag_116\n      jump\t// in\n    tag_163:\n        /* \"#utility.yul\":1139:1174   */\n      swap1\n      pop\n        /* \"#utility.yul\":1084:1180   */\n      swap2\n      swap1\n      pop\n      jump\t// out\n        /* \"#utility.yul\":1186:1304   */\n    tag_122:\n        /* \"#utility.yul\":1273:1297   */\n      tag_165\n        /* \"#utility.yul\":1291:1296   */\n      dup2\n        /* \"#utility.yul\":1273:1297   */\n      tag_121\n      jump\t// in\n    tag_165:\n        /* \"#utility.yul\":1268:1271   */\n      dup3\n        /* \"#utility.yul\":1261:1298   */\n      mstore\n        /* \"#utility.yul\":1186:1304   */\n      pop\n      pop\n      jump\t// out\n        /* \"#utility.yul\":1310:1532   */\n    tag_39:\n        /* \"#utility.yul\":1403:1407   */\n      0x00\n        /* \"#utility.yul\":1441:1443   */\n      0x20\n        /* \"#utility.yul\":1430:1439   */\n      dup3\n        /* \"#utility.yul\":1426:1444   */\n      add\n        /* \"#utility.yul\":1418:1444   */\n      swap1\n      pop\n        /* \"#utility.yul\":1454:1525   */\n      tag_167\n        /* \"#utility.yul\":1522:1523   */\n      0x00\n        /* \"#utility.yul\":1511:1520   */\n      dup4\n        /* \"#utility.yul\":1507:1524   */\n      add\n        /* \"#utility.yul\":1498:1504   */\n      dup5\n        /* \"#utility.yul\":1454:1525   */\n      tag_122\n      jump\t// in\n    tag_167:\n        /* \"#utility.yul\":1310:1532   */\n      swap3\n      swap2\n      pop\n      pop\n      jump\t// out\n        /* \"#utility.yul\":1538:1598   */\n    tag_123:\n        /* \"#utility.yul\":1566:1569   */\n      0x00\n        /* \"#utility.yul\":1587:1592   */\n      dup2\n        /* \"#utility.yul\":1580:1592   */\n      swap1\n      pop\n        /* \"#utility.yul\":1538:1598   */\n      swap2\n      swap1\n      pop\n      jump\t// out\n        /* \"#utility.yul\":1604:1746   */\n    tag_124:\n        /* \"#utility.yul\":1654:1663   */\n      0x00\n        /* \"#utility.yul\":1687:1740   */\n      tag_170\n        /* \"#utility.yul\":1705:1739   */\n      tag_171\n        /* \"#utility.yul\":1714:1738   */\n      tag_172\n        /* \"#utility.yul\":1732:1737   */\n      dup5\n        /* \"#utility.yul\":1714:1738   */\n      tag_116\n      jump\t// in\n    tag_172:\n        /* \"#utility.yul\":1705:1739   */\n      tag_123\n      jump\t// in\n    tag_171:\n        /* \"#utility.yul\":1687:1740   */\n      tag_116\n      jump\t// in\n    tag_170:\n        /* \"#utility.yul\":1674:1740   */\n      swap1\n      pop\n        /* \"#utility.yul\":1604:1746   */\n      swap2\n      swap1\n      pop\n      jump\t// out\n        /* \"#utility.yul\":1752:1878   */\n    tag_125:\n        /* \"#utility.yul\":1802:1811   */\n      0x00\n        /* \"#utility.yul\":1835:1872   */\n      tag_174\n        /* \"#utility.yul\":1866:1871   */\n      dup3\n        /* \"#utility.yul\":1835:1872   */\n      tag_124\n      jump\t// in\n    tag_174:\n        /* \"#utility.yul\":1822:1872   */\n      swap1\n      pop\n        /* \"#utility.yul\":1752:1878   */\n      swap2\n      swap1\n      pop\n      jump\t// out\n        /* \"#utility.yul\":1884:2025   */\n    tag_126:\n        /* \"#utility.yul\":1949:1958   */\n      0x00\n        /* \"#utility.yul\":1982:2019   */\n      tag_176\n        /* \"#utility.yul\":2013:2018   */\n      dup3\n        /* \"#utility.yul\":1982:2019   */\n      tag_125\n      jump\t// in\n    tag_176:\n        /* \"#utility.yul\":1969:2019   */\n      swap1\n      pop\n        /* \"#utility.yul\":1884:2025   */\n      swap2\n      swap1\n      pop\n      jump\t// out\n        /* \"#utility.yul\":2031:2192   */\n    tag_127:\n        /* \"#utility.yul\":2133:2185   */\n      tag_178\n        /* \"#utility.yul\":2179:2184   */\n      dup2\n        /* \"#utility.yul\":2133:2185   */\n      tag_126\n      jump\t// in\n    tag_178:\n        /* \"#utility.yul\":2128:2131   */\n      dup3\n        /* \"#utility.yul\":2121:2186   */\n      mstore\n        /* \"#utility.yul\":2031:2192   */\n      pop\n      pop\n      jump\t// out\n        /* \"#utility.yul\":2198:2450   */\n    tag_44:\n        /* \"#utility.yul\":2306:2310   */\n      0x00\n        /* \"#utility.yul\":2344:2346   */\n      0x20\n        /* \"#utility.yul\":2333:2342   */\n      dup3\n        /* \"#utility.yul\":2329:2347   */\n      add\n        /* \"#utility.yul\":2321:2347   */\n      swap1\n      pop\n        /* \"#utility.yul\":2357:2443   */\n      tag_180\n        /* \"#utility.yul\":2440:2441   */\n      0x00\n        /* \"#utility.yul\":2429:2438   */\n      dup4\n        /* \"#utility.yul\":2425:2442   */\n      add\n        /* \"#utility.yul\":2416:2422   */\n      dup5\n        /* \"#utility.yul\":2357:2443   */\n      tag_127\n      jump\t// in\n    tag_180:\n        /* \"#utility.yul\":2198:2450   */\n      swap3\n      swap2\n      pop\n      pop\n      jump\t// out\n        /* \"#utility.yul\":2456:2533   */\n    tag_128:\n        /* \"#utility.yul\":2493:2500   */\n      0x00\n        /* \"#utility.yul\":2522:2527   */\n      dup2\n        /* \"#utility.yul\":2511:2527   */\n      swap1\n      pop\n        /* \"#utility.yul\":2456:2533   */\n      swap2\n      swap1\n      pop\n      jump\t// out\n        /* \"#utility.yul\":2539:2657   */\n    tag_129:\n        /* \"#utility.yul\":2626:2650   */\n      tag_183\n        /* \"#utility.yul\":2644:2649   */\n      dup2\n        /* \"#utility.yul\":2626:2650   */\n      tag_128\n      jump\t// in\n    tag_183:\n        /* \"#utility.yul\":2621:2624   */\n      dup3\n        /* \"#utility.yul\":2614:2651   */\n      mstore\n        /* \"#utility.yul\":2539:2657   */\n      pop\n      pop\n      jump\t// out\n        /* \"#utility.yul\":2663:2885   */\n    tag_49:\n        /* \"#utility.yul\":2756:2760   */\n      0x00\n        /* \"#utility.yul\":2794:2796   */\n      0x20\n        /* \"#utility.yul\":2783:2792   */\n      dup3\n        /* \"#utility.yul\":2779:2797   */\n      add\n        /* \"#utility.yul\":2771:2797   */\n      swap1\n      pop\n        /* \"#utility.yul\":2807:2878   */\n      tag_185\n        /* \"#utility.yul\":2875:2876   */\n      0x00\n        /* \"#utility.yul\":2864:2873   */\n      dup4\n        /* \"#utility.yul\":2860:2877   */\n      add\n        /* \"#utility.yul\":2851:2857   */\n      dup5\n        /* \"#utility.yul\":2807:2878   */\n      tag_129\n      jump\t// in\n    tag_185:\n        /* \"#utility.yul\":2663:2885   */\n      swap3\n      swap2\n      pop\n      pop\n      jump\t// out\n        /* \"#utility.yul\":2972:3089   */\n    tag_131:\n        /* \"#utility.yul\":3081:3082   */\n      0x00\n        /* \"#utility.yul\":3078:3079   */\n      dup1\n        /* \"#utility.yul\":3071:3083   */\n      revert\n        /* \"#utility.yul\":3218:3340   */\n    tag_133:\n        /* \"#utility.yul\":3291:3315   */\n      tag_190\n        /* \"#utility.yul\":3309:3314   */\n      dup2\n        /* \"#utility.yul\":3291:3315   */\n      tag_121\n      jump\t// in\n    tag_190:\n        /* \"#utility.yul\":3284:3289   */\n      dup2\n        /* \"#utility.yul\":3281:3316   */\n      eq\n        /* \"#utility.yul\":3271:3334   */\n      tag_191\n      jumpi\n        /* \"#utility.yul\":3330:3331   */\n      0x00\n        /* \"#utility.yul\":3327:3328   */\n      dup1\n        /* \"#utility.yul\":3320:3332   */\n      revert\n        /* \"#utility.yul\":3271:3334   */\n    tag_191:\n        /* \"#utility.yul\":3218:3340   */\n      pop\n      jump\t// out\n        /* \"#utility.yul\":3346:3485   */\n    tag_134:\n        /* \"#utility.yul\":3392:3397   */\n      0x00\n        /* \"#utility.yul\":3430:3436   */\n      dup2\n        /* \"#utility.yul\":3417:3437   */\n      calldataload\n        /* \"#utility.yul\":3408:3437   */\n      swap1\n      pop\n        /* \"#utility.yul\":3446:3479   */\n      tag_193\n        /* \"#utility.yul\":3473:3478   */\n      dup2\n        /* \"#utility.yul\":3446:3479   */\n      tag_133\n      jump\t// in\n    tag_193:\n        /* \"#utility.yul\":3346:3485   */\n      swap3\n      swap2\n      pop\n      pop\n      jump\t// out\n        /* \"#utility.yul\":3491:3820   */\n    tag_62:\n        /* \"#utility.yul\":3550:3556   */\n      0x00\n        /* \"#utility.yul\":3599:3601   */\n      0x20\n        /* \"#utility.yul\":3587:3596   */\n      dup3\n        /* \"#utility.yul\":3578:3585   */\n      dup5\n        /* \"#utility.yul\":3574:3597   */\n      sub\n        /* \"#utility.yul\":3570:3602   */\n      slt\n        /* \"#utility.yul\":3567:3686   */\n      iszero\n      tag_195\n      jumpi\n        /* \"#utility.yul\":3605:3684   */\n      tag_196\n      tag_131\n      jump\t// in\n    tag_196:\n        /* \"#utility.yul\":3567:3686   */\n    tag_195:\n        /* \"#utility.yul\":3725:3726   */\n      0x00\n        /* \"#utility.yul\":3750:3803   */\n      tag_197\n        /* \"#utility.yul\":3795:3802   */\n      dup5\n        /* \"#utility.yul\":3786:3792   */\n      dup3\n        /* \"#utility.yul\":3775:3784   */\n      dup6\n        /* \"#utility.yul\":3771:3793   */\n      add\n        /* \"#utility.yul\":3750:3803   */\n      tag_134\n      jump\t// in\n    tag_197:\n        /* \"#utility.yul\":3740:3803   */\n      swap2\n      pop\n        /* \"#utility.yul\":3696:3813   */\n      pop\n        /* \"#utility.yul\":3491:3820   */\n      swap3\n      swap2\n      pop\n      pop\n      jump\t// out\n        /* \"#utility.yul\":3826:3995   */\n    tag_135:\n        /* \"#utility.yul\":3910:3921   */\n      0x00\n        /* \"#utility.yul\":3944:3950   */\n      dup3\n        /* \"#utility.yul\":3939:3942   */\n      dup3\n        /* \"#utility.yul\":3932:3951   */\n      mstore\n        /* \"#utility.yul\":3984:3988   */\n      0x20\n        /* \"#utility.yul\":3979:3982   */\n      dup3\n        /* \"#utility.yul\":3975:3989   */\n      add\n        /* \"#utility.yul\":3960:3989   */\n      swap1\n      pop\n        /* \"#utility.yul\":3826:3995   */\n      swap3\n      swap2\n      pop\n      pop\n      jump\t// out\n        /* \"#utility.yul\":4001:4168   */\n    tag_136:\n        /* \"#utility.yul\":4141:4160   */\n      0x616c72656164792073746172742e2e2e2e000000000000000000000000000000\n        /* \"#utility.yul\":4137:4138   */\n      0x00\n        /* \"#utility.yul\":4129:4135   */\n      dup3\n        /* \"#utility.yul\":4125:4139   */\n      add\n        /* \"#utility.yul\":4118:4161   */\n      mstore\n        /* \"#utility.yul\":4001:4168   */\n      pop\n      jump\t// out\n        /* \"#utility.yul\":4174:4540   */\n    tag_137:\n        /* \"#utility.yul\":4316:4319   */\n      0x00\n        /* \"#utility.yul\":4337:4404   */\n      tag_201\n        /* \"#utility.yul\":4401:4403   */\n      0x11\n        /* \"#utility.yul\":4396:4399   */\n      dup4\n        /* \"#utility.yul\":4337:4404   */\n      tag_135\n      jump\t// in\n    tag_201:\n        /* \"#utility.yul\":4330:4404   */\n      swap2\n      pop\n        /* \"#utility.yul\":4413:4506   */\n      tag_202\n        /* \"#utility.yul\":4502:4505   */\n      dup3\n        /* \"#utility.yul\":4413:4506   */\n      tag_136\n      jump\t// in\n    tag_202:\n        /* \"#utility.yul\":4531:4533   */\n      0x20\n        /* \"#utility.yul\":4526:4529   */\n      dup3\n        /* \"#utility.yul\":4522:4534   */\n      add\n        /* \"#utility.yul\":4515:4534   */\n      swap1\n      pop\n        /* \"#utility.yul\":4174:4540   */\n      swap2\n      swap1\n      pop\n      jump\t// out\n        /* \"#utility.yul\":4546:4965   */\n    tag_68:\n        /* \"#utility.yul\":4712:4716   */\n      0x00\n        /* \"#utility.yul\":4750:4752   */\n      0x20\n        /* \"#utility.yul\":4739:4748   */\n      dup3\n        /* \"#utility.yul\":4735:4753   */\n      add\n        /* \"#utility.yul\":4727:4753   */\n      swap1\n      pop\n        /* \"#utility.yul\":4799:4808   */\n      dup2\n        /* \"#utility.yul\":4793:4797   */\n      dup2\n        /* \"#utility.yul\":4789:4809   */\n      sub\n        /* \"#utility.yul\":4785:4786   */\n      0x00\n        /* \"#utility.yul\":4774:4783   */\n      dup4\n        /* \"#utility.yul\":4770:4787   */\n      add\n        /* \"#utility.yul\":4763:4810   */\n      mstore\n        /* \"#utility.yul\":4827:4958   */\n      tag_204\n        /* \"#utility.yul\":4953:4957   */\n      dup2\n        /* \"#utility.yul\":4827:4958   */\n      tag_137\n      jump\t// in\n    tag_204:\n        /* \"#utility.yul\":4819:4958   */\n      swap1\n      pop\n        /* \"#utility.yul\":4546:4965   */\n      swap2\n      swap1\n      pop\n      jump\t// out\n        /* \"#utility.yul\":4971:5131   */\n    tag_138:\n        /* \"#utility.yul\":5111:5123   */\n      0x6e6f742073656c6c657200000000000000000000000000000000000000000000\n        /* \"#utility.yul\":5107:5108   */\n      0x00\n        /* \"#utility.yul\":5099:5105   */\n      dup3\n        /* \"#utility.yul\":5095:5109   */\n      add\n        /* \"#utility.yul\":5088:5124   */\n      mstore\n        /* \"#utility.yul\":4971:5131   */\n      pop\n      jump\t// out\n        /* \"#utility.yul\":5137:5503   */\n    tag_139:\n        /* \"#utility.yul\":5279:5282   */\n      0x00\n        /* \"#utility.yul\":5300:5367   */\n      tag_207\n        /* \"#utility.yul\":5364:5366   */\n      0x0a\n        /* \"#utility.yul\":5359:5362   */\n      dup4\n        /* \"#utility.yul\":5300:5367   */\n      tag_135\n      jump\t// in\n    tag_207:\n        /* \"#utility.yul\":5293:5367   */\n      swap2\n      pop\n        /* \"#utility.yul\":5376:5469   */\n      tag_208\n        /* \"#utility.yul\":5465:5468   */\n      dup3\n        /* \"#utility.yul\":5376:5469   */\n      tag_138\n      jump\t// in\n    tag_208:\n        /* \"#utility.yul\":5494:5496   */\n      0x20\n        /* \"#utility.yul\":5489:5492   */\n      dup3\n        /* \"#utility.yul\":5485:5497   */\n      add\n        /* \"#utility.yul\":5478:5497   */\n      swap1\n      pop\n        /* \"#utility.yul\":5137:5503   */\n      swap2\n      swap1\n      pop\n      jump\t// out\n        /* \"#utility.yul\":5509:5928   */\n    tag_71:\n        /* \"#utility.yul\":5675:5679   */\n      0x00\n        /* \"#utility.yul\":5713:5715   */\n      0x20\n        /* \"#utility.yul\":5702:5711   */\n      dup3\n        /* \"#utility.yul\":5698:5716   */\n      add\n        /* \"#utility.yul\":5690:5716   */\n      swap1\n      pop\n        /* \"#utility.yul\":5762:5771   */\n      dup2\n        /* \"#utility.yul\":5756:5760   */\n      dup2\n        /* \"#utility.yul\":5752:5772   */\n      sub\n        /* \"#utility.yul\":5748:5749   */\n      0x00\n        /* \"#utility.yul\":5737:5746   */\n      dup4\n        /* \"#utility.yul\":5733:5750   */\n      add\n        /* \"#utility.yul\":5726:5773   */\n      mstore\n        /* \"#utility.yul\":5790:5921   */\n      tag_210\n        /* \"#utility.yul\":5916:5920   */\n      dup2\n        /* \"#utility.yul\":5790:5921   */\n      tag_139\n      jump\t// in\n    tag_210:\n        /* \"#utility.yul\":5782:5921   */\n      swap1\n      pop\n        /* \"#utility.yul\":5509:5928   */\n      swap2\n      swap1\n      pop\n      jump\t// out\n        /* \"#utility.yul\":5934:6376   */\n    tag_73:\n        /* \"#utility.yul\":6083:6087   */\n      0x00\n        /* \"#utility.yul\":6121:6123   */\n      0x60\n        /* \"#utility.yul\":6110:6119   */\n      dup3\n        /* \"#utility.yul\":6106:6124   */\n      add\n        /* \"#utility.yul\":6098:6124   */\n      swap1\n      pop\n        /* \"#utility.yul\":6134:6205   */\n      tag_212\n        /* \"#utility.yul\":6202:6203   */\n      0x00\n        /* \"#utility.yul\":6191:6200   */\n      dup4\n        /* \"#utility.yul\":6187:6204   */\n      add\n        /* \"#utility.yul\":6178:6184   */\n      dup7\n        /* \"#utility.yul\":6134:6205   */\n      tag_122\n      jump\t// in\n    tag_212:\n        /* \"#utility.yul\":6215:6287   */\n      tag_213\n        /* \"#utility.yul\":6283:6285   */\n      0x20\n        /* \"#utility.yul\":6272:6281   */\n      dup4\n        /* \"#utility.yul\":6268:6286   */\n      add\n        /* \"#utility.yul\":6259:6265   */\n      dup6\n        /* \"#utility.yul\":6215:6287   */\n      tag_122\n      jump\t// in\n    tag_213:\n        /* \"#utility.yul\":6297:6369   */\n      tag_214\n        /* \"#utility.yul\":6365:6367   */\n      0x40\n        /* \"#utility.yul\":6354:6363   */\n      dup4\n        /* \"#utility.yul\":6350:6368   */\n      add\n        /* \"#utility.yul\":6341:6347   */\n      dup5\n        /* \"#utility.yul\":6297:6369   */\n      tag_129\n      jump\t// in\n    tag_214:\n        /* \"#utility.yul\":5934:6376   */\n      swap5\n      swap4\n      pop\n      pop\n      pop\n      pop\n      jump\t// out\n        /* \"#utility.yul\":6382:6562   */\n    tag_140:\n        /* \"#utility.yul\":6430:6507   */\n      0x4e487b7100000000000000000000000000000000000000000000000000000000\n        /* \"#utility.yul\":6427:6428   */\n      0x00\n        /* \"#utility.yul\":6420:6508   */\n      mstore\n        /* \"#utility.yul\":6527:6531   */\n      0x11\n        /* \"#utility.yul\":6524:6525   */\n      0x04\n        /* \"#utility.yul\":6517:6532   */\n      mstore\n        /* \"#utility.yul\":6551:6555   */\n      0x24\n        /* \"#utility.yul\":6548:6549   */\n      0x00\n        /* \"#utility.yul\":6541:6556   */\n      revert\n        /* \"#utility.yul\":6568:6759   */\n    tag_78:\n        /* \"#utility.yul\":6608:6611   */\n      0x00\n        /* \"#utility.yul\":6627:6647   */\n      tag_217\n        /* \"#utility.yul\":6645:6646   */\n      dup3\n        /* \"#utility.yul\":6627:6647   */\n      tag_128\n      jump\t// in\n    tag_217:\n        /* \"#utility.yul\":6622:6647   */\n      swap2\n      pop\n        /* \"#utility.yul\":6661:6681   */\n      tag_218\n        /* \"#utility.yul\":6679:6680   */\n      dup4\n        /* \"#utility.yul\":6661:6681   */\n      tag_128\n      jump\t// in\n    tag_218:\n        /* \"#utility.yul\":6656:6681   */\n      swap3\n      pop\n        /* \"#utility.yul\":6704:6705   */\n      dup3\n        /* \"#utility.yul\":6701:6702   */\n      dup3\n        /* \"#utility.yul\":6697:6706   */\n      add\n        /* \"#utility.yul\":6690:6706   */\n      swap1\n      pop\n        /* \"#utility.yul\":6725:6728   */\n      dup1\n        /* \"#utility.yul\":6722:6723   */\n      dup3\n        /* \"#utility.yul\":6719:6729   */\n      gt\n        /* \"#utility.yul\":6716:6752   */\n      iszero\n      tag_219\n      jumpi\n        /* \"#utility.yul\":6732:6750   */\n      tag_220\n      tag_140\n      jump\t// in\n    tag_220:\n        /* \"#utility.yul\":6716:6752   */\n    tag_219:\n        /* \"#utility.yul\":6568:6759   */\n      swap3\n      swap2\n      pop\n      pop\n      jump\t// out\n        /* \"#utility.yul\":6765:6926   */\n    tag_141:\n        /* \"#utility.yul\":6905:6918   */\n      0x6e6f742073746172746564000000000000000000000000000000000000000000\n        /* \"#utility.yul\":6901:6902   */\n      0x00\n        /* \"#utility.yul\":6893:6899   */\n      dup3\n        /* \"#utility.yul\":6889:6903   */\n      add\n        /* \"#utility.yul\":6882:6919   */\n      mstore\n        /* \"#utility.yul\":6765:6926   */\n      pop\n      jump\t// out\n        /* \"#utility.yul\":6932:7298   */\n    tag_142:\n        /* \"#utility.yul\":7074:7077   */\n      0x00\n        /* \"#utility.yul\":7095:7162   */\n      tag_223\n        /* \"#utility.yul\":7159:7161   */\n      0x0b\n        /* \"#utility.yul\":7154:7157   */\n      dup4\n        /* \"#utility.yul\":7095:7162   */\n      tag_135\n      jump\t// in\n    tag_223:\n        /* \"#utility.yul\":7088:7162   */\n      swap2\n      pop\n        /* \"#utility.yul\":7171:7264   */\n      tag_224\n        /* \"#utility.yul\":7260:7263   */\n      dup3\n        /* \"#utility.yul\":7171:7264   */\n      tag_141\n      jump\t// in\n    tag_224:\n        /* \"#utility.yul\":7289:7291   */\n      0x20\n        /* \"#utility.yul\":7284:7287   */\n      dup3\n        /* \"#utility.yul\":7280:7292   */\n      add\n        /* \"#utility.yul\":7273:7292   */\n      swap1\n      pop\n        /* \"#utility.yul\":6932:7298   */\n      swap2\n      swap1\n      pop\n      jump\t// out\n        /* \"#utility.yul\":7304:7723   */\n    tag_86:\n        /* \"#utility.yul\":7470:7474   */\n      0x00\n        /* \"#utility.yul\":7508:7510   */\n      0x20\n        /* \"#utility.yul\":7497:7506   */\n      dup3\n        /* \"#utility.yul\":7493:7511   */\n      add\n        /* \"#utility.yul\":7485:7511   */\n      swap1\n      pop\n        /* \"#utility.yul\":7557:7566   */\n      dup2\n        /* \"#utility.yul\":7551:7555   */\n      dup2\n        /* \"#utility.yul\":7547:7567   */\n      sub\n        /* \"#utility.yul\":7543:7544   */\n      0x00\n        /* \"#utility.yul\":7532:7541   */\n      dup4\n        /* \"#utility.yul\":7528:7545   */\n      add\n        /* \"#utility.yul\":7521:7568   */\n      mstore\n        /* \"#utility.yul\":7585:7716   */\n      tag_226\n        /* \"#utility.yul\":7711:7715   */\n      dup2\n        /* \"#utility.yul\":7585:7716   */\n      tag_142\n      jump\t// in\n    tag_226:\n        /* \"#utility.yul\":7577:7716   */\n      swap1\n      pop\n        /* \"#utility.yul\":7304:7723   */\n      swap2\n      swap1\n      pop\n      jump\t// out\n        /* \"#utility.yul\":7729:7888   */\n    tag_143:\n        /* \"#utility.yul\":7869:7880   */\n      0x6e6f7420656e6465640000000000000000000000000000000000000000000000\n        /* \"#utility.yul\":7865:7866   */\n      0x00\n        /* \"#utility.yul\":7857:7863   */\n      dup3\n        /* \"#utility.yul\":7853:7867   */\n      add\n        /* \"#utility.yul\":7846:7881   */\n      mstore\n        /* \"#utility.yul\":7729:7888   */\n      pop\n      jump\t// out\n        /* \"#utility.yul\":7894:8259   */\n    tag_144:\n        /* \"#utility.yul\":8036:8039   */\n      0x00\n        /* \"#utility.yul\":8057:8123   */\n      tag_229\n        /* \"#utility.yul\":8121:8122   */\n      0x09\n        /* \"#utility.yul\":8116:8119   */\n      dup4\n        /* \"#utility.yul\":8057:8123   */\n      tag_135\n      jump\t// in\n    tag_229:\n        /* \"#utility.yul\":8050:8123   */\n      swap2\n      pop\n        /* \"#utility.yul\":8132:8225   */\n      tag_230\n        /* \"#utility.yul\":8221:8224   */\n      dup3\n        /* \"#utility.yul\":8132:8225   */\n      tag_143\n      jump\t// in\n    tag_230:\n        /* \"#utility.yul\":8250:8252   */\n      0x20\n        /* \"#utility.yul\":8245:8248   */\n      dup3\n        /* \"#utility.yul\":8241:8253   */\n      add\n        /* \"#utility.yul\":8234:8253   */\n      swap1\n      pop\n        /* \"#utility.yul\":7894:8259   */\n      swap2\n      swap1\n      pop\n      jump\t// out\n        /* \"#utility.yul\":8265:8684   */\n    tag_97:\n        /* \"#utility.yul\":8431:8435   */\n      0x00\n        /* \"#utility.yul\":8469:8471   */\n      0x20\n        /* \"#utility.yul\":8458:8467   */\n      dup3\n        /* \"#utility.yul\":8454:8472   */\n      add\n        /* \"#utility.yul\":8446:8472   */\n      swap1\n      pop\n        /* \"#utility.yul\":8518:8527   */\n      dup2\n        /* \"#utility.yul\":8512:8516   */\n      dup2\n        /* \"#utility.yul\":8508:8528   */\n      sub\n        /* \"#utility.yul\":8504:8505   */\n      0x00\n        /* \"#utility.yul\":8493:8502   */\n      dup4\n        /* \"#utility.yul\":8489:8506   */\n      add\n        /* \"#utility.yul\":8482:8529   */\n      mstore\n        /* \"#utility.yul\":8546:8677   */\n      tag_232\n        /* \"#utility.yul\":8672:8676   */\n      dup2\n        /* \"#utility.yul\":8546:8677   */\n      tag_144\n      jump\t// in\n    tag_232:\n        /* \"#utility.yul\":8538:8677   */\n      swap1\n      pop\n        /* \"#utility.yul\":8265:8684   */\n      swap2\n      swap1\n      pop\n      jump\t// out\n        /* \"#utility.yul\":8690:8845   */\n    tag_145:\n        /* \"#utility.yul\":8830:8837   */\n      0x656e646564000000000000000000000000000000000000000000000000000000\n        /* \"#utility.yul\":8826:8827   */\n      0x00\n        /* \"#utility.yul\":8818:8824   */\n      dup3\n        /* \"#utility.yul\":8814:8828   */\n      add\n        /* \"#utility.yul\":8807:8838   */\n      mstore\n        /* \"#utility.yul\":8690:8845   */\n      pop\n      jump\t// out\n        /* \"#utility.yul\":8851:9216   */\n    tag_146:\n        /* \"#utility.yul\":8993:8996   */\n      0x00\n        /* \"#utility.yul\":9014:9080   */\n      tag_235\n        /* \"#utility.yul\":9078:9079   */\n      0x05\n        /* \"#utility.yul\":9073:9076   */\n      dup4\n        /* \"#utility.yul\":9014:9080   */\n      tag_135\n      jump\t// in\n    tag_235:\n        /* \"#utility.yul\":9007:9080   */\n      swap2\n      pop\n        /* \"#utility.yul\":9089:9182   */\n      tag_236\n        /* \"#utility.yul\":9178:9181   */\n      dup3\n        /* \"#utility.yul\":9089:9182   */\n      tag_145\n      jump\t// in\n    tag_236:\n        /* \"#utility.yul\":9207:9209   */\n      0x20\n        /* \"#utility.yul\":9202:9205   */\n      dup3\n        /* \"#utility.yul\":9198:9210   */\n      add\n        /* \"#utility.yul\":9191:9210   */\n      swap1\n      pop\n        /* \"#utility.yul\":8851:9216   */\n      swap2\n      swap1\n      pop\n      jump\t// out\n        /* \"#utility.yul\":9222:9641   */\n    tag_100:\n        /* \"#utility.yul\":9388:9392   */\n      0x00\n        /* \"#utility.yul\":9426:9428   */\n      0x20\n        /* \"#utility.yul\":9415:9424   */\n      dup3\n        /* \"#utility.yul\":9411:9429   */\n      add\n        /* \"#utility.yul\":9403:9429   */\n      swap1\n      pop\n        /* \"#utility.yul\":9475:9484   */\n      dup2\n        /* \"#utility.yul\":9469:9473   */\n      dup2\n        /* \"#utility.yul\":9465:9485   */\n      sub\n        /* \"#utility.yul\":9461:9462   */\n      0x00\n        /* \"#utility.yul\":9450:9459   */\n      dup4\n        /* \"#utility.yul\":9446:9463   */\n      add\n        /* \"#utility.yul\":9439:9486   */\n      mstore\n        /* \"#utility.yul\":9503:9634   */\n      tag_238\n        /* \"#utility.yul\":9629:9633   */\n      dup2\n        /* \"#utility.yul\":9503:9634   */\n      tag_146\n      jump\t// in\n    tag_238:\n        /* \"#utility.yul\":9495:9634   */\n      swap1\n      pop\n        /* \"#utility.yul\":9222:9641   */\n      swap2\n      swap1\n      pop\n      jump\t// out\n        /* \"#utility.yul\":9647:9781   */\n    tag_147:\n        /* \"#utility.yul\":9705:9714   */\n      0x00\n        /* \"#utility.yul\":9738:9775   */\n      tag_240\n        /* \"#utility.yul\":9769:9774   */\n      dup3\n        /* \"#utility.yul\":9738:9775   */\n      tag_125\n      jump\t// in\n    tag_240:\n        /* \"#utility.yul\":9725:9775   */\n      swap1\n      pop\n        /* \"#utility.yul\":9647:9781   */\n      swap2\n      swap1\n      pop\n      jump\t// out\n        /* \"#utility.yul\":9787:9934   */\n    tag_148:\n        /* \"#utility.yul\":9882:9927   */\n      tag_242\n        /* \"#utility.yul\":9921:9926   */\n      dup2\n        /* \"#utility.yul\":9882:9927   */\n      tag_147\n      jump\t// in\n    tag_242:\n        /* \"#utility.yul\":9877:9880   */\n      dup3\n        /* \"#utility.yul\":9870:9928   */\n      mstore\n        /* \"#utility.yul\":9787:9934   */\n      pop\n      pop\n      jump\t// out\n        /* \"#utility.yul\":9940:10398   */\n    tag_110:\n        /* \"#utility.yul\":10097:10101   */\n      0x00\n        /* \"#utility.yul\":10135:10137   */\n      0x60\n        /* \"#utility.yul\":10124:10133   */\n      dup3\n        /* \"#utility.yul\":10120:10138   */\n      add\n        /* \"#utility.yul\":10112:10138   */\n      swap1\n      pop\n        /* \"#utility.yul\":10148:10219   */\n      tag_244\n        /* \"#utility.yul\":10216:10217   */\n      0x00\n        /* \"#utility.yul\":10205:10214   */\n      dup4\n        /* \"#utility.yul\":10201:10218   */\n      add\n        /* \"#utility.yul\":10192:10198   */\n      dup7\n        /* \"#utility.yul\":10148:10219   */\n      tag_122\n      jump\t// in\n    tag_244:\n        /* \"#utility.yul\":10229:10309   */\n      tag_245\n        /* \"#utility.yul\":10305:10307   */\n      0x20\n        /* \"#utility.yul\":10294:10303   */\n      dup4\n        /* \"#utility.yul\":10290:10308   */\n      add\n        /* \"#utility.yul\":10281:10287   */\n      dup6\n        /* \"#utility.yul\":10229:10309   */\n      tag_148\n      jump\t// in\n    tag_245:\n        /* \"#utility.yul\":10319:10391   */\n      tag_246\n        /* \"#utility.yul\":10387:10389   */\n      0x40\n        /* \"#utility.yul\":10376:10385   */\n      dup4\n        /* \"#utility.yul\":10372:10390   */\n      add\n        /* \"#utility.yul\":10363:10369   */\n      dup5\n        /* \"#utility.yul\":10319:10391   */\n      tag_129\n      jump\t// in\n    tag_246:\n        /* \"#utility.yul\":9940:10398   */\n      swap5\n      swap4\n      pop\n      pop\n      pop\n      pop\n      jump\t// out\n        /* \"#utility.yul\":10404:10736   */\n    tag_115:\n        /* \"#utility.yul\":10525:10529   */\n      0x00\n        /* \"#utility.yul\":10563:10565   */\n      0x40\n        /* \"#utility.yul\":10552:10561   */\n      dup3\n        /* \"#utility.yul\":10548:10566   */\n      add\n        /* \"#utility.yul\":10540:10566   */\n      swap1\n      pop\n        /* \"#utility.yul\":10576:10647   */\n      tag_248\n        /* \"#utility.yul\":10644:10645   */\n      0x00\n        /* \"#utility.yul\":10633:10642   */\n      dup4\n        /* \"#utility.yul\":10629:10646   */\n      add\n        /* \"#utility.yul\":10620:10626   */\n      dup6\n        /* \"#utility.yul\":10576:10647   */\n      tag_122\n      jump\t// in\n    tag_248:\n        /* \"#utility.yul\":10657:10729   */\n      tag_249\n        /* \"#utility.yul\":10725:10727   */\n      0x20\n        /* \"#utility.yul\":10714:10723   */\n      dup4\n        /* \"#utility.yul\":10710:10728   */\n      add\n        /* \"#utility.yul\":10701:10707   */\n      dup5\n        /* \"#utility.yul\":10657:10729   */\n      tag_129\n      jump\t// in\n    tag_249:\n        /* \"#utility.yul\":10404:10736   */\n      swap4\n      swap3\n      pop\n      pop\n      pop\n      jump\t// out\n\n    auxdata: 0xa2646970667358221220a8b0f5a321e7551237e8f59196eb2e825c0fa6bebbd202f8d6bccf62a746312b64736f6c634300081a0033\n}\n",
				"bytecode": {
					"linkReferences": {},
					"object": "608060405234801561000f575f80fd5b5060405161120438038061120483398181016040528101906100319190610157565b825f806101000a81548173ffffffffffffffffffffffffffffffffffffffff021916908373ffffffffffffffffffffffffffffffffffffffff160217905550816001819055503360025f6101000a81548173ffffffffffffffffffffffffffffffffffffffff021916908373ffffffffffffffffffffffffffffffffffffffff160217905550806005819055505050506101a7565b5f80fd5b5f73ffffffffffffffffffffffffffffffffffffffff82169050919050565b5f6100f3826100ca565b9050919050565b610103816100e9565b811461010d575f80fd5b50565b5f8151905061011e816100fa565b92915050565b5f819050919050565b61013681610124565b8114610140575f80fd5b50565b5f815190506101518161012d565b92915050565b5f805f6060848603121561016e5761016d6100c6565b5b5f61017b86828701610110565b935050602061018c86828701610143565b925050604061019d86828701610143565b9150509250925092565b611050806101b45f395ff3fe6080604052600436106100a6575f3560e01c806347ccca021161006357806347ccca021461017e5780639cfd5fc1146101a8578063bf15071d146101d2578063c6bc5182146101dc578063efbe1c1c14610206578063f40e84711461021c576100a6565b8063059b2a10146100aa57806308551a53146100c057806312fa6feb146100ea5780631f2698ab146101145780633ccfd60b1461013e5780634451965614610154575b5f80fd5b3480156100b5575f80fd5b506100be610258565b005b3480156100cb575f80fd5b506100d461041e565b6040516100e19190610b6e565b60405180910390f35b3480156100f5575f80fd5b506100fe610443565b60405161010b9190610ba1565b60405180910390f35b34801561011f575f80fd5b50610128610456565b6040516101359190610ba1565b60405180910390f35b348015610149575f80fd5b50610152610468565b005b34801561015f575f80fd5b50610168610580565b6040516101759190610bda565b60405180910390f35b348015610189575f80fd5b506101926105a6565b60405161019f9190610c4e565b60405180910390f35b3480156101b3575f80fd5b506101bc6105c9565b6040516101c99190610c7f565b60405180910390f35b6101da6105cf565b005b3480156101e7575f80fd5b506101f061079c565b6040516101fd9190610c7f565b60405180910390f35b348015610211575f80fd5b5061021a6107a2565b005b348015610227575f80fd5b50610242600480360381019061023d9190610cc6565b610b1a565b60405161024f9190610c7f565b60405180910390f35b60045f9054906101000a900460ff16156102a7576040517f08c379a000000000000000000000000000000000000000000000000000000000815260040161029e90610d4b565b60405180910390fd5b60025f9054906101000a900473ffffffffffffffffffffffffffffffffffffffff1673ffffffffffffffffffffffffffffffffffffffff163373ffffffffffffffffffffffffffffffffffffffff1614610336576040517f08c379a000000000000000000000000000000000000000000000000000000000815260040161032d90610db3565b60405180910390fd5b5f8054906101000a900473ffffffffffffffffffffffffffffffffffffffff1673ffffffffffffffffffffffffffffffffffffffff166323b872dd33306001546040518463ffffffff1660e01b815260040161039493929190610dd1565b5f604051808303815f87803b1580156103ab575f80fd5b505af11580156103bd573d5f803e3d5ffd5b50505050600160045f6101000a81548160ff02191690831515021790555062015180426103ea9190610e33565b6003819055507fa45a51138b787eb2037222d091f2d7a2e1c2af2f4051a414a11c84edc74df95360405160405180910390a1565b60025f9054906101000a900473ffffffffffffffffffffffffffffffffffffffff1681565b600460019054906101000a900460ff1681565b60045f9054906101000a900460ff1681565b5f60065f3373ffffffffffffffffffffffffffffffffffffffff1673ffffffffffffffffffffffffffffffffffffffff1681526020019081526020015f205490505f60065f3373ffffffffffffffffffffffffffffffffffffffff1673ffffffffffffffffffffffffffffffffffffffff1681526020019081526020015f20819055503373ffffffffffffffffffffffffffffffffffffffff166108fc8290811502906040515f60405180830381858888f1935050505015801561052e573d5f803e3d5ffd5b503373ffffffffffffffffffffffffffffffffffffffff167f7a091cb75d8d5f5e7ecba428a87e35adb231681f6ee35c9fc6ce90966401ff5b826040516105759190610c7f565b60405180910390a250565b600460029054906101000a900473ffffffffffffffffffffffffffffffffffffffff1681565b5f8054906101000a900473ffffffffffffffffffffffffffffffffffffffff1681565b60055481565b60045f9054906101000a900460ff1661061d576040517f08c379a000000000000000000000000000000000000000000000000000000000815260040161061490610eb0565b60405180910390fd5b600354421061062a575f80fd5b6005543411610637575f80fd5b5f73ffffffffffffffffffffffffffffffffffffffff16600460029054906101000a900473ffffffffffffffffffffffffffffffffffffffff1673ffffffffffffffffffffffffffffffffffffffff16146107045760055460065f600460029054906101000a900473ffffffffffffffffffffffffffffffffffffffff1673ffffffffffffffffffffffffffffffffffffffff1673ffffffffffffffffffffffffffffffffffffffff1681526020019081526020015f205f8282546106fc9190610e33565b925050819055505b33600460026101000a81548173ffffffffffffffffffffffffffffffffffffffff021916908373ffffffffffffffffffffffffffffffffffffffff160217905550346005819055503373ffffffffffffffffffffffffffffffffffffffff167fe684a55f31b79eca403df938249029212a5925ec6be8012e099b45bc1019e5d2346040516107929190610c7f565b60405180910390a2565b60015481565b60045f9054906101000a900460ff166107f0576040517f08c379a00000000000000000000000000000000000000000000000000000000081526004016107e790610eb0565b60405180910390fd5b600354421015610835576040517f08c379a000000000000000000000000000000000000000000000000000000000815260040161082c90610f18565b60405180910390fd5b600460019054906101000a900460ff1615610885576040517f08c379a000000000000000000000000000000000000000000000000000000000815260040161087c90610f80565b60405180910390fd5b6001600460016101000a81548160ff0219169083151502179055505f73ffffffffffffffffffffffffffffffffffffffff16600460029054906101000a900473ffffffffffffffffffffffffffffffffffffffff1673ffffffffffffffffffffffffffffffffffffffff1614610a0e575f8054906101000a900473ffffffffffffffffffffffffffffffffffffffff1673ffffffffffffffffffffffffffffffffffffffff166342842e0e30600460029054906101000a900473ffffffffffffffffffffffffffffffffffffffff166001546040518463ffffffff1660e01b815260040161097593929190610dd1565b5f604051808303815f87803b15801561098c575f80fd5b505af115801561099e573d5f803e3d5ffd5b5050505060025f9054906101000a900473ffffffffffffffffffffffffffffffffffffffff1673ffffffffffffffffffffffffffffffffffffffff166108fc60055490811502906040515f60405180830381858888f19350505050158015610a08573d5f803e3d5ffd5b50610abb565b5f8054906101000a900473ffffffffffffffffffffffffffffffffffffffff1673ffffffffffffffffffffffffffffffffffffffff166342842e0e3060025f9054906101000a900473ffffffffffffffffffffffffffffffffffffffff166001546040518463ffffffff1660e01b8152600401610a8d93929190610fbe565b5f604051808303815f87803b158015610aa4575f80fd5b505af1158015610ab6573d5f803e3d5ffd5b505050505b7f7d7570b046e5ead3a4f3fbc9fa2445113625a1e79823776146316bafed6b8cc5600460029054906101000a900473ffffffffffffffffffffffffffffffffffffffff16600554604051610b10929190610ff3565b60405180910390a1565b6006602052805f5260405f205f915090505481565b5f73ffffffffffffffffffffffffffffffffffffffff82169050919050565b5f610b5882610b2f565b9050919050565b610b6881610b4e565b82525050565b5f602082019050610b815f830184610b5f565b92915050565b5f8115159050919050565b610b9b81610b87565b82525050565b5f602082019050610bb45f830184610b92565b92915050565b5f610bc482610b2f565b9050919050565b610bd481610bba565b82525050565b5f602082019050610bed5f830184610bcb565b92915050565b5f819050919050565b5f610c16610c11610c0c84610b2f565b610bf3565b610b2f565b9050919050565b5f610c2782610bfc565b9050919050565b5f610c3882610c1d565b9050919050565b610c4881610c2e565b82525050565b5f602082019050610c615f830184610c3f565b92915050565b5f819050919050565b610c7981610c67565b82525050565b5f602082019050610c925f830184610c70565b92915050565b5f80fd5b610ca581610bba565b8114610caf575f80fd5b50565b5f81359050610cc081610c9c565b92915050565b5f60208284031215610cdb57610cda610c98565b5b5f610ce884828501610cb2565b91505092915050565b5f82825260208201905092915050565b7f616c72656164792073746172742e2e2e2e0000000000000000000000000000005f82015250565b5f610d35601183610cf1565b9150610d4082610d01565b602082019050919050565b5f6020820190508181035f830152610d6281610d29565b9050919050565b7f6e6f742073656c6c6572000000000000000000000000000000000000000000005f82015250565b5f610d9d600a83610cf1565b9150610da882610d69565b602082019050919050565b5f6020820190508181035f830152610dca81610d91565b9050919050565b5f606082019050610de45f830186610bcb565b610df16020830185610bcb565b610dfe6040830184610c70565b949350505050565b7f4e487b71000000000000000000000000000000000000000000000000000000005f52601160045260245ffd5b5f610e3d82610c67565b9150610e4883610c67565b9250828201905080821115610e6057610e5f610e06565b5b92915050565b7f6e6f7420737461727465640000000000000000000000000000000000000000005f82015250565b5f610e9a600b83610cf1565b9150610ea582610e66565b602082019050919050565b5f6020820190508181035f830152610ec781610e8e565b9050919050565b7f6e6f7420656e64656400000000000000000000000000000000000000000000005f82015250565b5f610f02600983610cf1565b9150610f0d82610ece565b602082019050919050565b5f6020820190508181035f830152610f2f81610ef6565b9050919050565b7f656e6465640000000000000000000000000000000000000000000000000000005f82015250565b5f610f6a600583610cf1565b9150610f7582610f36565b602082019050919050565b5f6020820190508181035f830152610f9781610f5e565b9050919050565b5f610fa882610c1d565b9050919050565b610fb881610f9e565b82525050565b5f606082019050610fd15f830186610bcb565b610fde6020830185610faf565b610feb6040830184610c70565b949350505050565b5f6040820190506110065f830185610bcb565b6110136020830184610c70565b939250505056fea2646970667358221220a8b0f5a321e7551237e8f59196eb2e825c0fa6bebbd202f8d6bccf62a746312b64736f6c634300081a0033",
					"opcodes": "PUSH1 0x80 PUSH1 0x40 MSTORE CALLVALUE DUP1 ISZERO PUSH2 0xF JUMPI PUSH0 DUP1 REVERT JUMPDEST POP PUSH1 0x40 MLOAD PUSH2 0x1204 CODESIZE SUB DUP1 PUSH2 0x1204 DUP4 CODECOPY DUP2 DUP2 ADD PUSH1 0x40 MSTORE DUP2 ADD SWAP1 PUSH2 0x31 SWAP2 SWAP1 PUSH2 0x157 JUMP JUMPDEST DUP3 PUSH0 DUP1 PUSH2 0x100 EXP DUP2 SLOAD DUP2 PUSH20 0xFFFFFFFFFFFFFFFFFFFFFFFFFFFFFFFFFFFFFFFF MUL NOT AND SWAP1 DUP4 PUSH20 0xFFFFFFFFFFFFFFFFFFFFFFFFFFFFFFFFFFFFFFFF AND MUL OR SWAP1 SSTORE POP DUP2 PUSH1 0x1 DUP2 SWAP1 SSTORE POP CALLER PUSH1 0x2 PUSH0 PUSH2 0x100 EXP DUP2 SLOAD DUP2 PUSH20 0xFFFFFFFFFFFFFFFFFFFFFFFFFFFFFFFFFFFFFFFF MUL NOT AND SWAP1 DUP4 PUSH20 0xFFFFFFFFFFFFFFFFFFFFFFFFFFFFFFFFFFFFFFFF AND MUL OR SWAP1 SSTORE POP DUP1 PUSH1 0x5 DUP2 SWAP1 SSTORE POP POP POP POP PUSH2 0x1A7 JUMP JUMPDEST PUSH0 DUP1 REVERT JUMPDEST PUSH0 PUSH20 0xFFFFFFFFFFFFFFFFFFFFFFFFFFFFFFFFFFFFFFFF DUP3 AND SWAP1 POP SWAP2 SWAP1 POP JUMP JUMPDEST PUSH0 PUSH2 0xF3 DUP3 PUSH2 0xCA JUMP JUMPDEST SWAP1 POP SWAP2 SWAP1 POP JUMP JUMPDEST PUSH2 0x103 DUP2 PUSH2 0xE9 JUMP JUMPDEST DUP2 EQ PUSH2 0x10D JUMPI PUSH0 DUP1 REVERT JUMPDEST POP JUMP JUMPDEST PUSH0 DUP2 MLOAD SWAP1 POP PUSH2 0x11E DUP2 PUSH2 0xFA JUMP JUMPDEST SWAP3 SWAP2 POP POP JUMP JUMPDEST PUSH0 DUP2 SWAP1 POP SWAP2 SWAP1 POP JUMP JUMPDEST PUSH2 0x136 DUP2 PUSH2 0x124 JUMP JUMPDEST DUP2 EQ PUSH2 0x140 JUMPI PUSH0 DUP1 REVERT JUMPDEST POP JUMP JUMPDEST PUSH0 DUP2 MLOAD SWAP1 POP PUSH2 0x151 DUP2 PUSH2 0x12D JUMP JUMPDEST SWAP3 SWAP2 POP POP JUMP JUMPDEST PUSH0 DUP1 PUSH0 PUSH1 0x60 DUP5 DUP7 SUB SLT ISZERO PUSH2 0x16E JUMPI PUSH2 0x16D PUSH2 0xC6 JUMP JUMPDEST JUMPDEST PUSH0 PUSH2 0x17B DUP7 DUP3 DUP8 ADD PUSH2 0x110 JUMP JUMPDEST SWAP4 POP POP PUSH1 0x20 PUSH2 0x18C DUP7 DUP3 DUP8 ADD PUSH2 0x143 JUMP JUMPDEST SWAP3 POP POP PUSH1 0x40 PUSH2 0x19D DUP7 DUP3 DUP8 ADD PUSH2 0x143 JUMP JUMPDEST SWAP2 POP POP SWAP3 POP SWAP3 POP SWAP3 JUMP JUMPDEST PUSH2 0x1050 DUP1 PUSH2 0x1B4 PUSH0 CODECOPY PUSH0 RETURN INVALID PUSH1 0x80 PUSH1 0x40 MSTORE PUSH1 0x4 CALLDATASIZE LT PUSH2 0xA6 JUMPI PUSH0 CALLDATALOAD PUSH1 0xE0 SHR DUP1 PUSH4 0x47CCCA02 GT PUSH2 0x63 JUMPI DUP1 PUSH4 0x47CCCA02 EQ PUSH2 0x17E JUMPI DUP1 PUSH4 0x9CFD5FC1 EQ PUSH2 0x1A8 JUMPI DUP1 PUSH4 0xBF15071D EQ PUSH2 0x1D2 JUMPI DUP1 PUSH4 0xC6BC5182 EQ PUSH2 0x1DC JUMPI DUP1 PUSH4 0xEFBE1C1C EQ PUSH2 0x206 JUMPI DUP1 PUSH4 0xF40E8471 EQ PUSH2 0x21C JUMPI PUSH2 0xA6 JUMP JUMPDEST DUP1 PUSH4 0x59B2A10 EQ PUSH2 0xAA JUMPI DUP1 PUSH4 0x8551A53 EQ PUSH2 0xC0 JUMPI DUP1 PUSH4 0x12FA6FEB EQ PUSH2 0xEA JUMPI DUP1 PUSH4 0x1F2698AB EQ PUSH2 0x114 JUMPI DUP1 PUSH4 0x3CCFD60B EQ PUSH2 0x13E JUMPI DUP1 PUSH4 0x44519656 EQ PUSH2 0x154 JUMPI JUMPDEST PUSH0 DUP1 REVERT JUMPDEST CALLVALUE DUP1 ISZERO PUSH2 0xB5 JUMPI PUSH0 DUP1 REVERT JUMPDEST POP PUSH2 0xBE PUSH2 0x258 JUMP JUMPDEST STOP JUMPDEST CALLVALUE DUP1 ISZERO PUSH2 0xCB JUMPI PUSH0 DUP1 REVERT JUMPDEST POP PUSH2 0xD4 PUSH2 0x41E JUMP JUMPDEST PUSH1 0x40 MLOAD PUSH2 0xE1 SWAP2 SWAP1 PUSH2 0xB6E JUMP JUMPDEST PUSH1 0x40 MLOAD DUP1 SWAP2 SUB SWAP1 RETURN JUMPDEST CALLVALUE DUP1 ISZERO PUSH2 0xF5 JUMPI PUSH0 DUP1 REVERT JUMPDEST POP PUSH2 0xFE PUSH2 0x443 JUMP JUMPDEST PUSH1 0x40 MLOAD PUSH2 0x10B SWAP2 SWAP1 PUSH2 0xBA1 JUMP JUMPDEST PUSH1 0x40 MLOAD DUP1 SWAP2 SUB SWAP1 RETURN JUMPDEST CALLVALUE DUP1 ISZERO PUSH2 0x11F JUMPI PUSH0 DUP1 REVERT JUMPDEST POP PUSH2 0x128 PUSH2 0x456 JUMP JUMPDEST PUSH1 0x40 MLOAD PUSH2 0x135 SWAP2 SWAP1 PUSH2 0xBA1 JUMP JUMPDEST PUSH1 0x40 MLOAD DUP1 SWAP2 SUB SWAP1 RETURN JUMPDEST CALLVALUE DUP1 ISZERO PUSH2 0x149 JUMPI PUSH0 DUP1 REVERT JUMPDEST POP PUSH2 0x152 PUSH2 0x468 JUMP JUMPDEST STOP JUMPDEST CALLVALUE DUP1 ISZERO PUSH2 0x15F JUMPI PUSH0 DUP1 REVERT JUMPDEST POP PUSH2 0x168 PUSH2 0x580 JUMP JUMPDEST PUSH1 0x40 MLOAD PUSH2 0x175 SWAP2 SWAP1 PUSH2 0xBDA JUMP JUMPDEST PUSH1 0x40 MLOAD DUP1 SWAP2 SUB SWAP1 RETURN JUMPDEST CALLVALUE DUP1 ISZERO PUSH2 0x189 JUMPI PUSH0 DUP1 REVERT JUMPDEST POP PUSH2 0x192 PUSH2 0x5A6 JUMP JUMPDEST PUSH1 0x40 MLOAD PUSH2 0x19F SWAP2 SWAP1 PUSH2 0xC4E JUMP JUMPDEST PUSH1 0x40 MLOAD DUP1 SWAP2 SUB SWAP1 RETURN JUMPDEST CALLVALUE DUP1 ISZERO PUSH2 0x1B3 JUMPI PUSH0 DUP1 REVERT JUMPDEST POP PUSH2 0x1BC PUSH2 0x5C9 JUMP JUMPDEST PUSH1 0x40 MLOAD PUSH2 0x1C9 SWAP2 SWAP1 PUSH2 0xC7F JUMP JUMPDEST PUSH1 0x40 MLOAD DUP1 SWAP2 SUB SWAP1 RETURN JUMPDEST PUSH2 0x1DA PUSH2 0x5CF JUMP JUMPDEST STOP JUMPDEST CALLVALUE DUP1 ISZERO PUSH2 0x1E7 JUMPI PUSH0 DUP1 REVERT JUMPDEST POP PUSH2 0x1F0 PUSH2 0x79C JUMP JUMPDEST PUSH1 0x40 MLOAD PUSH2 0x1FD SWAP2 SWAP1 PUSH2 0xC7F JUMP JUMPDEST PUSH1 0x40 MLOAD DUP1 SWAP2 SUB SWAP1 RETURN JUMPDEST CALLVALUE DUP1 ISZERO PUSH2 0x211 JUMPI PUSH0 DUP1 REVERT JUMPDEST POP PUSH2 0x21A PUSH2 0x7A2 JUMP JUMPDEST STOP JUMPDEST CALLVALUE DUP1 ISZERO PUSH2 0x227 JUMPI PUSH0 DUP1 REVERT JUMPDEST POP PUSH2 0x242 PUSH1 0x4 DUP1 CALLDATASIZE SUB DUP2 ADD SWAP1 PUSH2 0x23D SWAP2 SWAP1 PUSH2 0xCC6 JUMP JUMPDEST PUSH2 0xB1A JUMP JUMPDEST PUSH1 0x40 MLOAD PUSH2 0x24F SWAP2 SWAP1 PUSH2 0xC7F JUMP JUMPDEST PUSH1 0x40 MLOAD DUP1 SWAP2 SUB SWAP1 RETURN JUMPDEST PUSH1 0x4 PUSH0 SWAP1 SLOAD SWAP1 PUSH2 0x100 EXP SWAP1 DIV PUSH1 0xFF AND ISZERO PUSH2 0x2A7 JUMPI PUSH1 0x40 MLOAD PUSH32 0x8C379A000000000000000000000000000000000000000000000000000000000 DUP2 MSTORE PUSH1 0x4 ADD PUSH2 0x29E SWAP1 PUSH2 0xD4B JUMP JUMPDEST PUSH1 0x40 MLOAD DUP1 SWAP2 SUB SWAP1 REVERT JUMPDEST PUSH1 0x2 PUSH0 SWAP1 SLOAD SWAP1 PUSH2 0x100 EXP SWAP1 DIV PUSH20 0xFFFFFFFFFFFFFFFFFFFFFFFFFFFFFFFFFFFFFFFF AND PUSH20 0xFFFFFFFFFFFFFFFFFFFFFFFFFFFFFFFFFFFFFFFF AND CALLER PUSH20 0xFFFFFFFFFFFFFFFFFFFFFFFFFFFFFFFFFFFFFFFF AND EQ PUSH2 0x336 JUMPI PUSH1 0x40 MLOAD PUSH32 0x8C379A000000000000000000000000000000000000000000000000000000000 DUP2 MSTORE PUSH1 0x4 ADD PUSH2 0x32D SWAP1 PUSH2 0xDB3 JUMP JUMPDEST PUSH1 0x40 MLOAD DUP1 SWAP2 SUB SWAP1 REVERT JUMPDEST PUSH0 DUP1 SLOAD SWAP1 PUSH2 0x100 EXP SWAP1 DIV PUSH20 0xFFFFFFFFFFFFFFFFFFFFFFFFFFFFFFFFFFFFFFFF AND PUSH20 0xFFFFFFFFFFFFFFFFFFFFFFFFFFFFFFFFFFFFFFFF AND PUSH4 0x23B872DD CALLER ADDRESS PUSH1 0x1 SLOAD PUSH1 0x40 MLOAD DUP5 PUSH4 0xFFFFFFFF AND PUSH1 0xE0 SHL DUP2 MSTORE PUSH1 0x4 ADD PUSH2 0x394 SWAP4 SWAP3 SWAP2 SWAP1 PUSH2 0xDD1 JUMP JUMPDEST PUSH0 PUSH1 0x40 MLOAD DUP1 DUP4 SUB DUP2 PUSH0 DUP8 DUP1 EXTCODESIZE ISZERO DUP1 ISZERO PUSH2 0x3AB JUMPI PUSH0 DUP1 REVERT JUMPDEST POP GAS CALL ISZERO DUP1 ISZERO PUSH2 0x3BD JUMPI RETURNDATASIZE PUSH0 DUP1 RETURNDATACOPY RETURNDATASIZE PUSH0 REVERT JUMPDEST POP POP POP POP PUSH1 0x1 PUSH1 0x4 PUSH0 PUSH2 0x100 EXP DUP2 SLOAD DUP2 PUSH1 0xFF MUL NOT AND SWAP1 DUP4 ISZERO ISZERO MUL OR SWAP1 SSTORE POP PUSH3 0x15180 TIMESTAMP PUSH2 0x3EA SWAP2 SWAP1 PUSH2 0xE33 JUMP JUMPDEST PUSH1 0x3 DUP2 SWAP1 SSTORE POP PUSH32 0xA45A51138B787EB2037222D091F2D7A2E1C2AF2F4051A414A11C84EDC74DF953 PUSH1 0x40 MLOAD PUSH1 0x40 MLOAD DUP1 SWAP2 SUB SWAP1 LOG1 JUMP JUMPDEST PUSH1 0x2 PUSH0 SWAP1 SLOAD SWAP1 PUSH2 0x100 EXP SWAP1 DIV PUSH20 0xFFFFFFFFFFFFFFFFFFFFFFFFFFFFFFFFFFFFFFFF AND DUP2 JUMP JUMPDEST PUSH1 0x4 PUSH1 0x1 SWAP1 SLOAD SWAP1 PUSH2 0x100 EXP SWAP1 DIV PUSH1 0xFF AND DUP2 JUMP JUMPDEST PUSH1 0x4 PUSH0 SWAP1 SLOAD SWAP1 PUSH2 0x100 EXP SWAP1 DIV PUSH1 0xFF AND DUP2 JUMP JUMPDEST PUSH0 PUSH1 0x6 PUSH0 CALLER PUSH20 0xFFFFFFFFFFFFFFFFFFFFFFFFFFFFFFFFFFFFFFFF AND PUSH20 0xFFFFFFFFFFFFFFFFFFFFFFFFFFFFFFFFFFFFFFFF AND DUP2 MSTORE PUSH1 0x20 ADD SWAP1 DUP2 MSTORE PUSH1 0x20 ADD PUSH0 KECCAK256 SLOAD SWAP1 POP PUSH0 PUSH1 0x6 PUSH0 CALLER PUSH20 0xFFFFFFFFFFFFFFFFFFFFFFFFFFFFFFFFFFFFFFFF AND PUSH20 0xFFFFFFFFFFFFFFFFFFFFFFFFFFFFFFFFFFFFFFFF AND DUP2 MSTORE PUSH1 0x20 ADD SWAP1 DUP2 MSTORE PUSH1 0x20 ADD PUSH0 KECCAK256 DUP2 SWAP1 SSTORE POP CALLER PUSH20 0xFFFFFFFFFFFFFFFFFFFFFFFFFFFFFFFFFFFFFFFF AND PUSH2 0x8FC DUP3 SWAP1 DUP2 ISZERO MUL SWAP1 PUSH1 0x40 MLOAD PUSH0 PUSH1 0x40 MLOAD DUP1 DUP4 SUB DUP2 DUP6 DUP9 DUP9 CALL SWAP4 POP POP POP POP ISZERO DUP1 ISZERO PUSH2 0x52E JUMPI RETURNDATASIZE PUSH0 DUP1 RETURNDATACOPY RETURNDATASIZE PUSH0 REVERT JUMPDEST POP CALLER PUSH20 0xFFFFFFFFFFFFFFFFFFFFFFFFFFFFFFFFFFFFFFFF AND PUSH32 0x7A091CB75D8D5F5E7ECBA428A87E35ADB231681F6EE35C9FC6CE90966401FF5B DUP3 PUSH1 0x40 MLOAD PUSH2 0x575 SWAP2 SWAP1 PUSH2 0xC7F JUMP JUMPDEST PUSH1 0x40 MLOAD DUP1 SWAP2 SUB SWAP1 LOG2 POP JUMP JUMPDEST PUSH1 0x4 PUSH1 0x2 SWAP1 SLOAD SWAP1 PUSH2 0x100 EXP SWAP1 DIV PUSH20 0xFFFFFFFFFFFFFFFFFFFFFFFFFFFFFFFFFFFFFFFF AND DUP2 JUMP JUMPDEST PUSH0 DUP1 SLOAD SWAP1 PUSH2 0x100 EXP SWAP1 DIV PUSH20 0xFFFFFFFFFFFFFFFFFFFFFFFFFFFFFFFFFFFFFFFF AND DUP2 JUMP JUMPDEST PUSH1 0x5 SLOAD DUP2 JUMP JUMPDEST PUSH1 0x4 PUSH0 SWAP1 SLOAD SWAP1 PUSH2 0x100 EXP SWAP1 DIV PUSH1 0xFF AND PUSH2 0x61D JUMPI PUSH1 0x40 MLOAD PUSH32 0x8C379A000000000000000000000000000000000000000000000000000000000 DUP2 MSTORE PUSH1 0x4 ADD PUSH2 0x614 SWAP1 PUSH2 0xEB0 JUMP JUMPDEST PUSH1 0x40 MLOAD DUP1 SWAP2 SUB SWAP1 REVERT JUMPDEST PUSH1 0x3 SLOAD TIMESTAMP LT PUSH2 0x62A JUMPI PUSH0 DUP1 REVERT JUMPDEST PUSH1 0x5 SLOAD CALLVALUE GT PUSH2 0x637 JUMPI PUSH0 DUP1 REVERT JUMPDEST PUSH0 PUSH20 0xFFFFFFFFFFFFFFFFFFFFFFFFFFFFFFFFFFFFFFFF AND PUSH1 0x4 PUSH1 0x2 SWAP1 SLOAD SWAP1 PUSH2 0x100 EXP SWAP1 DIV PUSH20 0xFFFFFFFFFFFFFFFFFFFFFFFFFFFFFFFFFFFFFFFF AND PUSH20 0xFFFFFFFFFFFFFFFFFFFFFFFFFFFFFFFFFFFFFFFF AND EQ PUSH2 0x704 JUMPI PUSH1 0x5 SLOAD PUSH1 0x6 PUSH0 PUSH1 0x4 PUSH1 0x2 SWAP1 SLOAD SWAP1 PUSH2 0x100 EXP SWAP1 DIV PUSH20 0xFFFFFFFFFFFFFFFFFFFFFFFFFFFFFFFFFFFFFFFF AND PUSH20 0xFFFFFFFFFFFFFFFFFFFFFFFFFFFFFFFFFFFFFFFF AND PUSH20 0xFFFFFFFFFFFFFFFFFFFFFFFFFFFFFFFFFFFFFFFF AND DUP2 MSTORE PUSH1 0x20 ADD SWAP1 DUP2 MSTORE PUSH1 0x20 ADD PUSH0 KECCAK256 PUSH0 DUP3 DUP3 SLOAD PUSH2 0x6FC SWAP2 SWAP1 PUSH2 0xE33 JUMP JUMPDEST SWAP3 POP POP DUP2 SWAP1 SSTORE POP JUMPDEST CALLER PUSH1 0x4 PUSH1 0x2 PUSH2 0x100 EXP DUP2 SLOAD DUP2 PUSH20 0xFFFFFFFFFFFFFFFFFFFFFFFFFFFFFFFFFFFFFFFF MUL NOT AND SWAP1 DUP4 PUSH20 0xFFFFFFFFFFFFFFFFFFFFFFFFFFFFFFFFFFFFFFFF AND MUL OR SWAP1 SSTORE POP CALLVALUE PUSH1 0x5 DUP2 SWAP1 SSTORE POP CALLER PUSH20 0xFFFFFFFFFFFFFFFFFFFFFFFFFFFFFFFFFFFFFFFF AND PUSH32 0xE684A55F31B79ECA403DF938249029212A5925EC6BE8012E099B45BC1019E5D2 CALLVALUE PUSH1 0x40 MLOAD PUSH2 0x792 SWAP2 SWAP1 PUSH2 0xC7F JUMP JUMPDEST PUSH1 0x40 MLOAD DUP1 SWAP2 SUB SWAP1 LOG2 JUMP JUMPDEST PUSH1 0x1 SLOAD DUP2 JUMP JUMPDEST PUSH1 0x4 PUSH0 SWAP1 SLOAD SWAP1 PUSH2 0x100 EXP SWAP1 DIV PUSH1 0xFF AND PUSH2 0x7F0 JUMPI PUSH1 0x40 MLOAD PUSH32 0x8C379A000000000000000000000000000000000000000000000000000000000 DUP2 MSTORE PUSH1 0x4 ADD PUSH2 0x7E7 SWAP1 PUSH2 0xEB0 JUMP JUMPDEST PUSH1 0x40 MLOAD DUP1 SWAP2 SUB SWAP1 REVERT JUMPDEST PUSH1 0x3 SLOAD TIMESTAMP LT ISZERO PUSH2 0x835 JUMPI PUSH1 0x40 MLOAD PUSH32 0x8C379A000000000000000000000000000000000000000000000000000000000 DUP2 MSTORE PUSH1 0x4 ADD PUSH2 0x82C SWAP1 PUSH2 0xF18 JUMP JUMPDEST PUSH1 0x40 MLOAD DUP1 SWAP2 SUB SWAP1 REVERT JUMPDEST PUSH1 0x4 PUSH1 0x1 SWAP1 SLOAD SWAP1 PUSH2 0x100 EXP SWAP1 DIV PUSH1 0xFF AND ISZERO PUSH2 0x885 JUMPI PUSH1 0x40 MLOAD PUSH32 0x8C379A000000000000000000000000000000000000000000000000000000000 DUP2 MSTORE PUSH1 0x4 ADD PUSH2 0x87C SWAP1 PUSH2 0xF80 JUMP JUMPDEST PUSH1 0x40 MLOAD DUP1 SWAP2 SUB SWAP1 REVERT JUMPDEST PUSH1 0x1 PUSH1 0x4 PUSH1 0x1 PUSH2 0x100 EXP DUP2 SLOAD DUP2 PUSH1 0xFF MUL NOT AND SWAP1 DUP4 ISZERO ISZERO MUL OR SWAP1 SSTORE POP PUSH0 PUSH20 0xFFFFFFFFFFFFFFFFFFFFFFFFFFFFFFFFFFFFFFFF AND PUSH1 0x4 PUSH1 0x2 SWAP1 SLOAD SWAP1 PUSH2 0x100 EXP SWAP1 DIV PUSH20 0xFFFFFFFFFFFFFFFFFFFFFFFFFFFFFFFFFFFFFFFF AND PUSH20 0xFFFFFFFFFFFFFFFFFFFFFFFFFFFFFFFFFFFFFFFF AND EQ PUSH2 0xA0E JUMPI PUSH0 DUP1 SLOAD SWAP1 PUSH2 0x100 EXP SWAP1 DIV PUSH20 0xFFFFFFFFFFFFFFFFFFFFFFFFFFFFFFFFFFFFFFFF AND PUSH20 0xFFFFFFFFFFFFFFFFFFFFFFFFFFFFFFFFFFFFFFFF AND PUSH4 0x42842E0E ADDRESS PUSH1 0x4 PUSH1 0x2 SWAP1 SLOAD SWAP1 PUSH2 0x100 EXP SWAP1 DIV PUSH20 0xFFFFFFFFFFFFFFFFFFFFFFFFFFFFFFFFFFFFFFFF AND PUSH1 0x1 SLOAD PUSH1 0x40 MLOAD DUP5 PUSH4 0xFFFFFFFF AND PUSH1 0xE0 SHL DUP2 MSTORE PUSH1 0x4 ADD PUSH2 0x975 SWAP4 SWAP3 SWAP2 SWAP1 PUSH2 0xDD1 JUMP JUMPDEST PUSH0 PUSH1 0x40 MLOAD DUP1 DUP4 SUB DUP2 PUSH0 DUP8 DUP1 EXTCODESIZE ISZERO DUP1 ISZERO PUSH2 0x98C JUMPI PUSH0 DUP1 REVERT JUMPDEST POP GAS CALL ISZERO DUP1 ISZERO PUSH2 0x99E JUMPI RETURNDATASIZE PUSH0 DUP1 RETURNDATACOPY RETURNDATASIZE PUSH0 REVERT JUMPDEST POP POP POP POP PUSH1 0x2 PUSH0 SWAP1 SLOAD SWAP1 PUSH2 0x100 EXP SWAP1 DIV PUSH20 0xFFFFFFFFFFFFFFFFFFFFFFFFFFFFFFFFFFFFFFFF AND PUSH20 0xFFFFFFFFFFFFFFFFFFFFFFFFFFFFFFFFFFFFFFFF AND PUSH2 0x8FC PUSH1 0x5 SLOAD SWAP1 DUP2 ISZERO MUL SWAP1 PUSH1 0x40 MLOAD PUSH0 PUSH1 0x40 MLOAD DUP1 DUP4 SUB DUP2 DUP6 DUP9 DUP9 CALL SWAP4 POP POP POP POP ISZERO DUP1 ISZERO PUSH2 0xA08 JUMPI RETURNDATASIZE PUSH0 DUP1 RETURNDATACOPY RETURNDATASIZE PUSH0 REVERT JUMPDEST POP PUSH2 0xABB JUMP JUMPDEST PUSH0 DUP1 SLOAD SWAP1 PUSH2 0x100 EXP SWAP1 DIV PUSH20 0xFFFFFFFFFFFFFFFFFFFFFFFFFFFFFFFFFFFFFFFF AND PUSH20 0xFFFFFFFFFFFFFFFFFFFFFFFFFFFFFFFFFFFFFFFF AND PUSH4 0x42842E0E ADDRESS PUSH1 0x2 PUSH0 SWAP1 SLOAD SWAP1 PUSH2 0x100 EXP SWAP1 DIV PUSH20 0xFFFFFFFFFFFFFFFFFFFFFFFFFFFFFFFFFFFFFFFF AND PUSH1 0x1 SLOAD PUSH1 0x40 MLOAD DUP5 PUSH4 0xFFFFFFFF AND PUSH1 0xE0 SHL DUP2 MSTORE PUSH1 0x4 ADD PUSH2 0xA8D SWAP4 SWAP3 SWAP2 SWAP1 PUSH2 0xFBE JUMP JUMPDEST PUSH0 PUSH1 0x40 MLOAD DUP1 DUP4 SUB DUP2 PUSH0 DUP8 DUP1 EXTCODESIZE ISZERO DUP1 ISZERO PUSH2 0xAA4 JUMPI PUSH0 DUP1 REVERT JUMPDEST POP GAS CALL ISZERO DUP1 ISZERO PUSH2 0xAB6 JUMPI RETURNDATASIZE PUSH0 DUP1 RETURNDATACOPY RETURNDATASIZE PUSH0 REVERT JUMPDEST POP POP POP POP JUMPDEST PUSH32 0x7D7570B046E5EAD3A4F3FBC9FA2445113625A1E79823776146316BAFED6B8CC5 PUSH1 0x4 PUSH1 0x2 SWAP1 SLOAD SWAP1 PUSH2 0x100 EXP SWAP1 DIV PUSH20 0xFFFFFFFFFFFFFFFFFFFFFFFFFFFFFFFFFFFFFFFF AND PUSH1 0x5 SLOAD PUSH1 0x40 MLOAD PUSH2 0xB10 SWAP3 SWAP2 SWAP1 PUSH2 0xFF3 JUMP JUMPDEST PUSH1 0x40 MLOAD DUP1 SWAP2 SUB SWAP1 LOG1 JUMP JUMPDEST PUSH1 0x6 PUSH1 0x20 MSTORE DUP1 PUSH0 MSTORE PUSH1 0x40 PUSH0 KECCAK256 PUSH0 SWAP2 POP SWAP1 POP SLOAD DUP2 JUMP JUMPDEST PUSH0 PUSH20 0xFFFFFFFFFFFFFFFFFFFFFFFFFFFFFFFFFFFFFFFF DUP3 AND SWAP1 POP SWAP2 SWAP1 POP JUMP JUMPDEST PUSH0 PUSH2 0xB58 DUP3 PUSH2 0xB2F JUMP JUMPDEST SWAP1 POP SWAP2 SWAP1 POP JUMP JUMPDEST PUSH2 0xB68 DUP2 PUSH2 0xB4E JUMP JUMPDEST DUP3 MSTORE POP POP JUMP JUMPDEST PUSH0 PUSH1 0x20 DUP3 ADD SWAP1 POP PUSH2 0xB81 PUSH0 DUP4 ADD DUP5 PUSH2 0xB5F JUMP JUMPDEST SWAP3 SWAP2 POP POP JUMP JUMPDEST PUSH0 DUP2 ISZERO ISZERO SWAP1 POP SWAP2 SWAP1 POP JUMP JUMPDEST PUSH2 0xB9B DUP2 PUSH2 0xB87 JUMP JUMPDEST DUP3 MSTORE POP POP JUMP JUMPDEST PUSH0 PUSH1 0x20 DUP3 ADD SWAP1 POP PUSH2 0xBB4 PUSH0 DUP4 ADD DUP5 PUSH2 0xB92 JUMP JUMPDEST SWAP3 SWAP2 POP POP JUMP JUMPDEST PUSH0 PUSH2 0xBC4 DUP3 PUSH2 0xB2F JUMP JUMPDEST SWAP1 POP SWAP2 SWAP1 POP JUMP JUMPDEST PUSH2 0xBD4 DUP2 PUSH2 0xBBA JUMP JUMPDEST DUP3 MSTORE POP POP JUMP JUMPDEST PUSH0 PUSH1 0x20 DUP3 ADD SWAP1 POP PUSH2 0xBED PUSH0 DUP4 ADD DUP5 PUSH2 0xBCB JUMP JUMPDEST SWAP3 SWAP2 POP POP JUMP JUMPDEST PUSH0 DUP2 SWAP1 POP SWAP2 SWAP1 POP JUMP JUMPDEST PUSH0 PUSH2 0xC16 PUSH2 0xC11 PUSH2 0xC0C DUP5 PUSH2 0xB2F JUMP JUMPDEST PUSH2 0xBF3 JUMP JUMPDEST PUSH2 0xB2F JUMP JUMPDEST SWAP1 POP SWAP2 SWAP1 POP JUMP JUMPDEST PUSH0 PUSH2 0xC27 DUP3 PUSH2 0xBFC JUMP JUMPDEST SWAP1 POP SWAP2 SWAP1 POP JUMP JUMPDEST PUSH0 PUSH2 0xC38 DUP3 PUSH2 0xC1D JUMP JUMPDEST SWAP1 POP SWAP2 SWAP1 POP JUMP JUMPDEST PUSH2 0xC48 DUP2 PUSH2 0xC2E JUMP JUMPDEST DUP3 MSTORE POP POP JUMP JUMPDEST PUSH0 PUSH1 0x20 DUP3 ADD SWAP1 POP PUSH2 0xC61 PUSH0 DUP4 ADD DUP5 PUSH2 0xC3F JUMP JUMPDEST SWAP3 SWAP2 POP POP JUMP JUMPDEST PUSH0 DUP2 SWAP1 POP SWAP2 SWAP1 POP JUMP JUMPDEST PUSH2 0xC79 DUP2 PUSH2 0xC67 JUMP JUMPDEST DUP3 MSTORE POP POP JUMP JUMPDEST PUSH0 PUSH1 0x20 DUP3 ADD SWAP1 POP PUSH2 0xC92 PUSH0 DUP4 ADD DUP5 PUSH2 0xC70 JUMP JUMPDEST SWAP3 SWAP2 POP POP JUMP JUMPDEST PUSH0 DUP1 REVERT JUMPDEST PUSH2 0xCA5 DUP2 PUSH2 0xBBA JUMP JUMPDEST DUP2 EQ PUSH2 0xCAF JUMPI PUSH0 DUP1 REVERT JUMPDEST POP JUMP JUMPDEST PUSH0 DUP2 CALLDATALOAD SWAP1 POP PUSH2 0xCC0 DUP2 PUSH2 0xC9C JUMP JUMPDEST SWAP3 SWAP2 POP POP JUMP JUMPDEST PUSH0 PUSH1 0x20 DUP3 DUP5 SUB SLT ISZERO PUSH2 0xCDB JUMPI PUSH2 0xCDA PUSH2 0xC98 JUMP JUMPDEST JUMPDEST PUSH0 PUSH2 0xCE8 DUP5 DUP3 DUP6 ADD PUSH2 0xCB2 JUMP JUMPDEST SWAP2 POP POP SWAP3 SWAP2 POP POP JUMP JUMPDEST PUSH0 DUP3 DUP3 MSTORE PUSH1 0x20 DUP3 ADD SWAP1 POP SWAP3 SWAP2 POP POP JUMP JUMPDEST PUSH32 0x616C72656164792073746172742E2E2E2E000000000000000000000000000000 PUSH0 DUP3 ADD MSTORE POP JUMP JUMPDEST PUSH0 PUSH2 0xD35 PUSH1 0x11 DUP4 PUSH2 0xCF1 JUMP JUMPDEST SWAP2 POP PUSH2 0xD40 DUP3 PUSH2 0xD01 JUMP JUMPDEST PUSH1 0x20 DUP3 ADD SWAP1 POP SWAP2 SWAP1 POP JUMP JUMPDEST PUSH0 PUSH1 0x20 DUP3 ADD SWAP1 POP DUP2 DUP2 SUB PUSH0 DUP4 ADD MSTORE PUSH2 0xD62 DUP2 PUSH2 0xD29 JUMP JUMPDEST SWAP1 POP SWAP2 SWAP1 POP JUMP JUMPDEST PUSH32 0x6E6F742073656C6C657200000000000000000000000000000000000000000000 PUSH0 DUP3 ADD MSTORE POP JUMP JUMPDEST PUSH0 PUSH2 0xD9D PUSH1 0xA DUP4 PUSH2 0xCF1 JUMP JUMPDEST SWAP2 POP PUSH2 0xDA8 DUP3 PUSH2 0xD69 JUMP JUMPDEST PUSH1 0x20 DUP3 ADD SWAP1 POP SWAP2 SWAP1 POP JUMP JUMPDEST PUSH0 PUSH1 0x20 DUP3 ADD SWAP1 POP DUP2 DUP2 SUB PUSH0 DUP4 ADD MSTORE PUSH2 0xDCA DUP2 PUSH2 0xD91 JUMP JUMPDEST SWAP1 POP SWAP2 SWAP1 POP JUMP JUMPDEST PUSH0 PUSH1 0x60 DUP3 ADD SWAP1 POP PUSH2 0xDE4 PUSH0 DUP4 ADD DUP7 PUSH2 0xBCB JUMP JUMPDEST PUSH2 0xDF1 PUSH1 0x20 DUP4 ADD DUP6 PUSH2 0xBCB JUMP JUMPDEST PUSH2 0xDFE PUSH1 0x40 DUP4 ADD DUP5 PUSH2 0xC70 JUMP JUMPDEST SWAP5 SWAP4 POP POP POP POP JUMP JUMPDEST PUSH32 0x4E487B7100000000000000000000000000000000000000000000000000000000 PUSH0 MSTORE PUSH1 0x11 PUSH1 0x4 MSTORE PUSH1 0x24 PUSH0 REVERT JUMPDEST PUSH0 PUSH2 0xE3D DUP3 PUSH2 0xC67 JUMP JUMPDEST SWAP2 POP PUSH2 0xE48 DUP4 PUSH2 0xC67 JUMP JUMPDEST SWAP3 POP DUP3 DUP3 ADD SWAP1 POP DUP1 DUP3 GT ISZERO PUSH2 0xE60 JUMPI PUSH2 0xE5F PUSH2 0xE06 JUMP JUMPDEST JUMPDEST SWAP3 SWAP2 POP POP JUMP JUMPDEST PUSH32 0x6E6F742073746172746564000000000000000000000000000000000000000000 PUSH0 DUP3 ADD MSTORE POP JUMP JUMPDEST PUSH0 PUSH2 0xE9A PUSH1 0xB DUP4 PUSH2 0xCF1 JUMP JUMPDEST SWAP2 POP PUSH2 0xEA5 DUP3 PUSH2 0xE66 JUMP JUMPDEST PUSH1 0x20 DUP3 ADD SWAP1 POP SWAP2 SWAP1 POP JUMP JUMPDEST PUSH0 PUSH1 0x20 DUP3 ADD SWAP1 POP DUP2 DUP2 SUB PUSH0 DUP4 ADD MSTORE PUSH2 0xEC7 DUP2 PUSH2 0xE8E JUMP JUMPDEST SWAP1 POP SWAP2 SWAP1 POP JUMP JUMPDEST PUSH32 0x6E6F7420656E6465640000000000000000000000000000000000000000000000 PUSH0 DUP3 ADD MSTORE POP JUMP JUMPDEST PUSH0 PUSH2 0xF02 PUSH1 0x9 DUP4 PUSH2 0xCF1 JUMP JUMPDEST SWAP2 POP PUSH2 0xF0D DUP3 PUSH2 0xECE JUMP JUMPDEST PUSH1 0x20 DUP3 ADD SWAP1 POP SWAP2 SWAP1 POP JUMP JUMPDEST PUSH0 PUSH1 0x20 DUP3 ADD SWAP1 POP DUP2 DUP2 SUB PUSH0 DUP4 ADD MSTORE PUSH2 0xF2F DUP2 PUSH2 0xEF6 JUMP JUMPDEST SWAP1 POP SWAP2 SWAP1 POP JUMP JUMPDEST PUSH32 0x656E646564000000000000000000000000000000000000000000000000000000 PUSH0 DUP3 ADD MSTORE POP JUMP JUMPDEST PUSH0 PUSH2 0xF6A PUSH1 0x5 DUP4 PUSH2 0xCF1 JUMP JUMPDEST SWAP2 POP PUSH2 0xF75 DUP3 PUSH2 0xF36 JUMP JUMPDEST PUSH1 0x20 DUP3 ADD SWAP1 POP SWAP2 SWAP1 POP JUMP JUMPDEST PUSH0 PUSH1 0x20 DUP3 ADD SWAP1 POP DUP2 DUP2 SUB PUSH0 DUP4 ADD MSTORE PUSH2 0xF97 DUP2 PUSH2 0xF5E JUMP JUMPDEST SWAP1 POP SWAP2 SWAP1 POP JUMP JUMPDEST PUSH0 PUSH2 0xFA8 DUP3 PUSH2 0xC1D JUMP JUMPDEST SWAP1 POP SWAP2 SWAP1 POP JUMP JUMPDEST PUSH2 0xFB8 DUP2 PUSH2 0xF9E JUMP JUMPDEST DUP3 MSTORE POP POP JUMP JUMPDEST PUSH0 PUSH1 0x60 DUP3 ADD SWAP1 POP PUSH2 0xFD1 PUSH0 DUP4 ADD DUP7 PUSH2 0xBCB JUMP JUMPDEST PUSH2 0xFDE PUSH1 0x20 DUP4 ADD DUP6 PUSH2 0xFAF JUMP JUMPDEST PUSH2 0xFEB PUSH1 0x40 DUP4 ADD DUP5 PUSH2 0xC70 JUMP JUMPDEST SWAP5 SWAP4 POP POP POP POP JUMP JUMPDEST PUSH0 PUSH1 0x40 DUP3 ADD SWAP1 POP PUSH2 0x1006 PUSH0 DUP4 ADD DUP6 PUSH2 0xBCB JUMP JUMPDEST PUSH2 0x1013 PUSH1 0x20 DUP4 ADD DUP5 PUSH2 0xC70 JUMP JUMPDEST SWAP4 SWAP3 POP POP POP JUMP INVALID LOG2 PUSH5 0x6970667358 0x22 SLT KECCAK256 0xA8 0xB0 CREATE2 LOG3 0x21 0xE7 SSTORE SLT CALLDATACOPY 0xE8 CREATE2 SWAP2 SWAP7 0xEB 0x2E DUP3 TLOAD 0xF 0xA6 0xBE 0xBB 0xD2 MUL 0xF8 0xD6 0xBC 0xCF PUSH3 0xA74631 0x2B PUSH5 0x736F6C6343 STOP ADDMOD BYTE STOP CALLER "
				},
				"gasEstimates": {
					"creation": {
						"codeDepositCost": "835200",
						"executionCost": "infinite",
						"totalCost": "infinite"
					},
					"external": {
						"end()": "infinite",
						"ended()": "2562",
						"highOrder()": "2447",
						"highOrderAddress()": "2670",
						"nft()": "infinite",
						"nftId()": "2491",
						"order()": "infinite",
						"orders(address)": "2912",
						"seller()": "2531",
						"started()": "2533",
						"strat()": "infinite",
						"withdraw()": "infinite"
					}
				},
				"methodIdentifiers": {
					"end()": "efbe1c1c",
					"ended()": "12fa6feb",
					"highOrder()": "9cfd5fc1",
					"highOrderAddress()": "44519656",
					"nft()": "47ccca02",
					"nftId()": "c6bc5182",
					"order()": "bf15071d",
					"orders(address)": "f40e8471",
					"seller()": "08551a53",
					"started()": "1f2698ab",
					"strat()": "059b2a10",
					"withdraw()": "3ccfd60b"
				}
			},
			"storageLayout": {
				"storage": [
					{
						"astId": 158,
						"contract": "auction.sol:Auction",
						"label": "nft",
						"offset": 0,
						"slot": "0",
						"type": "t_contract(IERC721)120"
					},
					{
						"astId": 160,
						"contract": "auction.sol:Auction",
						"label": "nftId",
						"offset": 0,
						"slot": "1",
						"type": "t_uint256"
					},
					{
						"astId": 162,
						"contract": "auction.sol:Auction",
						"label": "seller",
						"offset": 0,
						"slot": "2",
						"type": "t_address_payable"
					},
					{
						"astId": 164,
						"contract": "auction.sol:Auction",
						"label": "endAt",
						"offset": 0,
						"slot": "3",
						"type": "t_uint256"
					},
					{
						"astId": 166,
						"contract": "auction.sol:Auction",
						"label": "started",
						"offset": 0,
						"slot": "4",
						"type": "t_bool"
					},
					{
						"astId": 168,
						"contract": "auction.sol:Auction",
						"label": "ended",
						"offset": 1,
						"slot": "4",
						"type": "t_bool"
					},
					{
						"astId": 170,
						"contract": "auction.sol:Auction",
						"label": "highOrderAddress",
						"offset": 2,
						"slot": "4",
						"type": "t_address"
					},
					{
						"astId": 172,
						"contract": "auction.sol:Auction",
						"label": "highOrder",
						"offset": 0,
						"slot": "5",
						"type": "t_uint256"
					},
					{
						"astId": 176,
						"contract": "auction.sol:Auction",
						"label": "orders",
						"offset": 0,
						"slot": "6",
						"type": "t_mapping(t_address,t_uint256)"
					}
				],
				"types": {
					"t_address": {
						"encoding": "inplace",
						"label": "address",
						"numberOfBytes": "20"
					},
					"t_address_payable": {
						"encoding": "inplace",
						"label": "address payable",
						"numberOfBytes": "20"
					},
					"t_bool": {
						"encoding": "inplace",
						"label": "bool",
						"numberOfBytes": "1"
					},
					"t_contract(IERC721)120": {
						"encoding": "inplace",
						"label": "contract IERC721",
						"numberOfBytes": "20"
					},
					"t_mapping(t_address,t_uint256)": {
						"encoding": "mapping",
						"key": "t_address",
						"label": "mapping(address => uint256)",
						"numberOfBytes": "32",
						"value": "t_uint256"
					},
					"t_uint256": {
						"encoding": "inplace",
						"label": "uint256",
						"numberOfBytes": "32"
					}
				}
			},
			"userdoc": {
				"kind": "user",
				"methods": {},
				"version": 1
			}
		}
	}
}